:020000040800F2
:1000000088050020010100084D160008451600086B
:10001000491600081D020008C5290008000000005C
:10002000000000000000000000000000B9290008E6
:100030002102000800000000D1280008BD290008A6
:100040001B0100081B0100081B0100081B01000820
:100050001B0100081B0100081B0100081B01000810
:100060001B0100081B0100081B0100081B01000800
:100070001B0100081B0100081B0100081B010008F0
:100080001B0100081B0100081B0100081B010008E0
:100090001B0100081B0100081B0100081B010008D0
:1000A0001B0100081B0100081B0100081B010008C0
:1000B0001B0100081B0100081B0100081B010008B0
:1000C0001B0100081B0100081B0100081B010008A0
:1000D0001B0100081B0100081B0100081B01000890
:1000E0001B0100081B0100081B010008DFF80CD0F1
:1000F00000F062F800480047C92900088805002080
:100100000648804706480047FEE7FEE7FEE7FEE7B1
:10011000FEE7FEE7FEE7FEE7FEE7FEE7C12900088F
:10012000ED00000840EA01039B0703D009E008C97D
:10013000121F08C0042AFAD203E011F8013B00F8AC
:10014000013B521EF9D27047421C10F8011B0029D6
:10015000FBD1801A70472DE9F05F054600209246DA
:100160009B4688460646814640241BE02846414679
:100170004746224600F041F853465A46C01A91417C
:1001800010D311461846224600F028F82D1A67EBC6
:1001900001084F4622460120002100F01FF817EB0E
:1001A00000094E41201EA4F10104DFDC484631461F
:1001B0002A464346BDE8F09F064C074D06E0E0683E
:1001C00040F0010394E8070098471034AC42F6D39E
:1001D000FFF790FF5840000878400008202A04DB11
:1001E000203A00FA02F1002070479140C2F120034A
:1001F00020FA03F3194390407047202A04DB203A89
:1002000021FA02F00021704721FA02F3D040C2F136
:10021000200291400843194670470000FEE70000A5
:1002200070470000B0B5044600F024F9054640F2DE
:100230000000C2F200000078611C18BF044400BF37
:1002400000F018F9401BA042FAD3B0BD2DE9F04FE1
:1002500082B00E68002E00F0038140F20C4C41F297
:1002600000424FF6FF7EC4F2010CC4F201020427E3
:1002700000240123C1F2100E4FF0000A4FF00009D4
:10028000904208BF0327009745E000BF012704F014
:100290000C030F229A402BEA020207FA03F34FEAFB
:1002A0009A051A4346F82520D1F804B040F20045DB
:1002B000C4F201055FEACB322A6854BF22EA080281
:1002C00042EA08022A606A685FEA8B3354BF22EA76
:1002D000080242EA08026A605FEACB23AA6854BFB8
:1002E00022EA080242EA08025FEA8B23AA60DCF8ED
:1002F00000204FF0010354BF22EA080242EA08023C
:10030000CCF800200E680AF1010A36FA0AF204F16C
:10031000040400F0A58003FA0AF816EA080FF1D0E9
:100320004E68764512DC122E56D8DFE806F0350B03
:100330004549555555555555555555555555554D91
:10034000510000BFD1F80C9046E000BF4FF6FF729D
:10035000C1F2210296420FDC0022C1F21102964244
:100360001AD00022C1F21202964215D00022C1F228
:100370002102964210D02FE00022C1F222029642C2
:100380000AD00022C1F23102964205D00022C1F209
:100390003202964220D100BF8A684AB1012A14BFB6
:1003A000C0F81480C0F810804FF0080914E000BFB6
:1003B0004FF0040910E000BFCA6802F108090BE021
:1003C0004FF0000908E000BFCA6802F1040903E029
:1003D000CA6802F10C0900BF22460646BAF1080FAE
:1003E00024BF203A043637680F25954027EA0505D3
:1003F00009FA02F22A433260CA79D2067FF582AF47
:1004000041F21803C4F202031A6842F001021A60B2
:100410001A6802F001020192019A40F20042C4F20D
:100420000102A2F57E762AF0030256F802B040F6E9
:100430000002C4F20102904210D040F60042C4F221
:10044000010290423FF422AF41F20002C4F20102E5
:10045000009F904208BF022719E700BF002716E758
:1004600002B0BDE8F08F0000002A08BF0904016156
:100470007047000040F28010C2F200000068704730
:1004800040F2000040F28011C2F20000C2F200010E
:1004900000780A68104408607047000080B542F296
:1004A0000000C4F20200016841F010010160032065
:1004B00000F07AF8002000F005F800F027F800209E
:1004C00080BD000070B540F20006C2F2000640F2A6
:1004D00008013278C2F200014FF47A730968B3FB65
:1004E000F2F20446B1FBF2F1084600F017FF0F2CC0
:1004F0004FF0010508D838B94FF0FF3021460022EF
:10050000002500F025F87460284670BD82B041F2E5
:100510001800C4F202000168022241F001010160EA
:10052000016801F0010101910199416841F0805198
:100530004160406800F08050009000980420C4F2B0
:100540000100016862F31A61016002B070470000A7
:1005500010B54EF60C5CCEF2000CDCF80030C3F3A4
:10056000022E8EF00704042C28BF0424BEF10303DE
:100570004FF0FF3E0EFA04F438BF0023A143994028
:100580000EFA03F39A43114300F00F0200F16043A7
:100590000901043A03F564436244002848BF02F1AC
:1005A0000C03197010BD00004EF60C51CEF2000184
:1005B0000A684FF6FF031A4060F30A2242F0806097
:1005C00040F0FD70086070472DE9F04381B00028CD
:1005D00000F0858042F20008C4F202080446D8F810
:1005E00000000D4600F0070088420CD2D8F8000049
:1005F00020F007002843C8F80000D8F8000000F0F9
:100600000700A8426BD1206841F204098107C4F2B7
:10061000020917D5410705D5D9F8001041F4E0616A
:10062000C9F80010010705D5D9F8001041F4605150
:10063000C9F80010D9F80010A26821F0F0011143A8
:10064000C9F80010C00741D1D8F8000000F0070039
:10065000A8420CD9D8F8000020F007002843C8F8B9
:100660000000D8F8000000F00700A84237D1206849
:10067000410707D5D9F80010E26821F4E061114381
:10068000C9F80010000708D5D9F80000216920F446
:10069000605040EAC100C9F80000D9F8002002F01B
:1006A0000C00082841F20020C0F27A0050D143F635
:1006B000AA43C2F38341C0F60003595CD2033BD482
:1006C00040F60010C0F23D00484341E06068022857
:1006D0000AD001282AD159F8041C890308D4012022
:1006E00001B0BDE8F08300BF59F8041C8901F6D5BC
:1006F000D9F8001021F003010843C9F80000FFF702
:10070000B9FE064641F28837D9F80000616800F06A
:100710000C00B0EB810F97D0FFF7ACFE801BB84206
:10072000F2D9032001B0BDE8F08300BF59F8041CE2
:100730008907D4D5DCE700BFD9F8002043F6904301
:10074000C2F34042C0F600039A5C4843B0FBF2F0AB
:10075000D9F8001043F69242C1F30311C0F600022B
:10076000515C40F2080220FA01F140F20400C2F2AA
:1007700000000068C2F200021160FFF7A3FE002033
:1007800001B0BDE8F083000040F2080041F204012E
:10079000C2F20000C4F202010068096843F6A242F6
:1007A000C1F30221C0F60002515CC840704700004E
:1007B00040F2080041F20401C2F20000C4F202015A
:1007C0000068096843F6A242C1F3C221C0F60002E4
:1007D000515CC840704700002DE9F04182B000280C
:1007E00068D00446007841F20006C007C4F2020651
:1007F00025D0706800F00C0004281BD0706800F051
:100800000C00082802D17068C00313D46068002867
:1008100000F06881B0F5A02F00F07C81B0F5803F3A
:1008200000F07C81306820F480303060306820F443
:10083000802076E13068800301D56068D0B32078ED
:10084000800718D5706810F00C0F07D0706800F0A2
:100850000C0008286ED17068C0036BD43068800724
:1008600002D52069012825D13068616920F0F8009F
:1008700040EAC1003060207800071FD4207840078C
:1008800032D4E56995B1706800F00C00082840F09A
:100890008F80012D0ED07068216A00F480328A4268
:1008A00008D1616A00F47010884203D1002002B0C0
:1008B000BDE8F081012002B0BDE8F081A069002808
:1008C00062D00020C4F242200121C0F88014FFF75A
:1008D000D1FD0546706A800700F18C80FFF7CAFDE4
:1008E000401B0228F6D92AE1F06910F0805808D19F
:1008F000F06940F08050F061F06900F080500090A5
:10090000009847F20007C4F200073868C00529D4F0
:10091000386840F480703860FFF7ACFD054600BFD2
:100920003868C0051ED4FFF7A5FD401B6428F7D921
:1009300005E100BF2069002840F20000C4F2422017
:1009400000F0828001210160FFF794FD054600BFA1
:10095000306880073FF588AFFFF78CFD401B022809
:10096000F6D9ECE0E068002800F08080052800F06F
:100970009780012800F09880306A20F001003062F2
:10098000306A20F0040092E00020C4F242200021EE
:10099000C0F88014FFF76EFD054600BF706A80073F
:1009A0007FF56CAFFFF766FD401B0228F6D9C6E065
:1009B0000027C4F2422700203866FFF75BFD022DB6
:1009C00005460BD13068800140F1BE80FFF752FD33
:1009D000401B02284FF00300F4D968E7306880011B
:1009E0007FF564AFFFF746FD401B02284FF0030080
:1009F000F4D95CE740F20800C2F20000006844F657
:100A0000D351C1F26201A0FB0101480A019000BF6D
:100A100000BF0198411E002801913FF42FAF00BF95
:100A20000198411E002801913FF428AF00BF0198B2
:100A3000411E002801913FF421AF00BF0198411EE3
:100A400000280191E4D119E700210160FFF712FDB0
:100A5000054600BF306880077FF50DAFFFF70AFD40
:100A6000401B02284FF00300F4D920E7306A20F041
:100A700001003062306A20F004003062FFF7FAFCB7
:100A8000054641F2883700BF306A800720D5FFF75E
:100A9000F1FC401BB8424FF00300F5D907E700BF57
:100AA000306A40F004003062306A40F00100306289
:100AB000FFF7E0FC054641F2883700BF306A800747
:100AC00006D4FFF7D7FC401BB842F7D937E000BF88
:100AD000B8F1000F7FF4D5AEF06920F08050F061DE
:100AE000CFE600BF306820F480303060306820F4FA
:100AF00080203060FFF7BEFC054600BF30688003F1
:100B00007FF59DAEFFF7B6FC401B64284FF0030055
:100B1000F4D9CCE6306840F480203060306840F48E
:100B200080303060FFF7A6FC054600BF30688003C8
:100B30003FF585AEFFF79EFC401B6428F6D90320E5
:100B400002B0BDE8F08100BF206AB0F5803F05D15A
:100B50007168A26821F40031114371607168626AA2
:100B600021F4741111430843706001203866FFF7C7
:100B700081FC0446306880013FF598AEFFF77AFCAF
:100B8000001B02284FF00300F4D990E670B538B18D
:100B90000446406A30B10020206104F1140007E0EF
:100BA000012070BD6068B0F5827F03D004F11C00A5
:100BB000002101600026A66294F8510020B9204669
:100BC00084F8506000F038F8022084F8510094E86E
:100BD000071001F48271036802F4044223F0400319
:100BE0000360236911440CF40062114403F0020213
:100BF0006369114403F00102A369E569114403F438
:100C00000072114405F03802256A114405F0800293
:100C1000A56A114305F4005211430160042101EA61
:100C200013414160C16921F40061C1610120666521
:100C300084F85100304670BD70B586B040F60004AF
:100C4000C4F20104006804F520510026884204968D
:100C500002D006B070BD00BF41F21800C4F202001D
:100C6000016802AD41F480510160016801F48051D6
:100C700001910199016841F0040101600068294671
:100C800000F0040001900198A0200290022003903F
:100C9000032005902046FFF7D9FA4020CDE902064F
:100CA000204629460496FFF7D1FA06B070BD000031
:100CB0002DE9F04381B0044640681D461746B0F563
:100CC000827F0E4601D1A068E0B394F8500001285D
:100CD00004D1022001B0BDE8F08300BF4FF001094C
:100CE00084F85090FFF7C6FB94F85110012927D1E2
:100CF0008046002E4FF0010018BF002F00F0C98081
:100D00000420002184F851006165A663A787E78766
:100D10002163A186E186A2682068B2F5004F2164B4
:100D200061644BD00168490653D5E168E08F002922
:100D300057D0002800F08680681C1CD12DE000BF31
:100D40000220A6E0042084F85100204631463246B5
:100D50003B46009500F090F901B0BDE8F08300BF7C
:100D6000C068A16B21F8020BA163E08F0138E08716
:100D7000E08F002866D020688168C907F0D1FFF7AE
:100D800079FBA0EB0800A842F2D3032081E000BF6A
:100D9000FFF770FBE08F002854D020688168C907F6
:100DA000F6D0C068A16B21F8020BA163E08F013877
:100DB000E087E08F0028F0D144E000BF016821F017
:100DC00040010160016821F4804101600168490629
:100DD000ABD4016841F040010160E168E08F002977
:100DE000A7D178B3681C0CD11CE000BF007BA16BBD
:100DF0000870A06B0130A063E08F0138E087E08FBE
:100E000000B320688168C907F0D1FFF733FBA0EB7E
:100E10000800A842F3D303203BE000BFFFF72AFB02
:100E2000E08F78B120688168C907F7D0007BA16B9B
:100E30000870A06B0130A063E08F0138E087E08F7D
:100E40000028EFD16068B0F5827F11D1A068B0F5BD
:100E5000004F02D0B0F5806F0AD12168B0F5806FE5
:100E60000A6822F040020A6002D12046012101E016
:100E7000204680212A46434601F02CFD28B1606DB2
:100E800040F02000606520206065606D002818BF7C
:100E90000120002184F8519084F8501001B0BDE881
:100EA000F08300002DE9F04381B0044690F8500033
:100EB000012803D1022001B0BDE8F0834FF0010901
:100EC0001D4616460F4684F85090FFF7D3FA94F863
:100ED0005110012944D18046002F4FF0010018BF66
:100EE000002E00F0C0800320002184F851006165CD
:100EF0002763A686E686A163A187E187A0682164AF
:100F0000B0F5004F2068616407D1016821F040010D
:100F10000160016841F4804101600168490603D421
:100F2000016841F0400101606168731EE268B1FA36
:100F300081F1B3FA83F349095B09B2F5006F41EA25
:100F400003013BD131B137F8021BC1602763E08E4A
:100F50000138E086E08E00286AD0681C0DD11CE0C4
:100F6000022080E0216B31F8022BC2602163E08E09
:100F70000138E086E08E00285AD020688168890711
:100F8000F0D4FFF777FAA0EB0800A842F2D338E0DC
:100F9000FFF770FAE08E00284AD020688168890740
:100FA000F6D5216B31F8022BC2602163E08E013847
:100FB000E086E08E0028F0D13AE000BF39B1397800
:100FC0000173206B01302063E08E0138E086E08EF3
:100FD00070B3681C0BD11BE0216B09780173206B87
:100FE00001302063E08E0138E086E08E00B3206897
:100FF00081688907F0D4FFF73DFAA0EB0800A8420A
:10100000F3D303202FE000BFFFF734FAE08E78B16E
:10101000206881688907F7D5216B09780173206BF7
:1010200001302063E08E0138E086E08E0028EFD1A9
:10103000204680212A46434601F04CFC28B1606DD1
:1010400040F02000606520206065A06838B900206D
:1010500000902068C1680091806800900098606DE1
:10106000002818BF0120002184F8519084F8501006
:1010700001B0BDE8F08300002DE9F04381B00446E3
:1010800090F85000012803D1022001B0BDE8F083A0
:1010900001201E4615460F4684F85000FFF7EAF976
:1010A00094F85110814601290CD06068B0F5827F18
:1010B00040F0A080A06800284FF0020008BF04297B
:1010C00040F09980002F4FF0010018BF002D00F074
:1010D0009280002E00F08F8094F8510000210428A7
:1010E0001CBF052084F851006165A563E687A687CB
:1010F0002763E6862068A686216461640168490644
:1011000003D4016841F0400101606168731EE26828
:10111000B1FA81F1B3FA83F3DDF8208049095B0964
:10112000B2F5006F41EA03016ED131B137F8021B0D
:10113000C1602763E08E0138E086012518F10100C7
:1011400031D101E0FFF796F9E08E18B9E08F002861
:1011500000F0C2802068816889070CD5E18E51B10A
:10116000012D08D1216B002531F8022BC2602163CB
:10117000E18E0139E1868168C907E3D0E18F00295A
:10118000E0D0C068A16B012521F8020BA163E08FBC
:101190000138E087D6E700BFFFF76CF9A0EB090044
:1011A000404580F0A980E08E18B9E08F002800F05B
:1011B00093802068816889070CD5E18E51B1012D9B
:1011C00008D1216B002531F8022BC2602163E18E2A
:1011D0000139E1868168C907DED0E18F0029DBD0C3
:1011E000C068A16B012521F8020BA163E08F0138D3
:1011F000E087D1E70220012184F85110002184F812
:10120000501001B0BDE8F08339B139780173206B1B
:1012100001302063E08E0138E086012518F10100DD
:1012200032D101E0FFF726F9E08E10B9E08F0028F7
:1012300052D02068816889070ED5E18E61B1012DF9
:101240000AD1216B002509780173216B20680131D7
:101250002163E18E0139E1868168C907E2D0E18F1F
:101260000029DFD0C068A16B01250870A06B013098
:10127000A063E08F0138E087D4E700BFFFF7FAF8FA
:10128000A0EB0900404539D2E08E08B9E08F18B3D1
:101290002068816889070ED5E18E61B1012D0AD1E0
:1012A000216B002509780173216B206801312163CE
:1012B000E18E0139E1868168C907DFD0E18F00291D
:1012C000DCD0C068A16B01250870A06B0130A06361
:1012D000E08F0138E087D1E72046802142464B4627
:1012E00001F0F8FA60B1606D40F0200060652020E8
:1012F000606501207FE700BF03207CE703207AE7D9
:10130000A06800284FF000007FF475AF00902168BE
:10131000CA6800928968009100996CE7411E00201C
:10132000B0EB116F1CBF012070474EF21002CEF2DD
:10133000000251604EF62351CEF20001F0230B70F3
:101340000721906011607047002804BF012070479A
:1013500010B5044690F8390028B9002084F8380008
:10136000204600F061F8242084F839002068D4E990
:101370000212C36823F40053C360036923F440538B
:101380001A430261D4E904231143C268194341F2AC
:101390000C639A431143C1604169A26921F4407111
:1013A000114343F60002C4F201029042416103D0AE
:1013B000FFF7EAF902E000BFFFF7FAF962681921C6
:1013C00048439100B0FBF1F048F21F51C5F2EB1118
:1013D000A0FB01235A094FF69C73C0F6FF7302FB72
:1013E0000300322303EB0010A0FB0101F02303EA0A
:1013F0005113206803EB0212C1F3431111448160C1
:10140000016921F490410161416921F02A014161A2
:10141000C16841F40051C16000202021E06384F8DC
:10142000391084F83A1010BD70B586B040F600044B
:10143000C4F201040068A4F54441002688420496E1
:1014400002D006B070BD00BF41F21800C4F2020025
:10145000416802AD41F400314160416801F400315E
:1014600001910199016841F0040101600068294679
:1014700000F00400019001980420029002200390E3
:10148000032005902046FEF7E1FE0820CDE9020684
:10149000204629460496FEF7D9FE06B070BD00002E
:1014A0002DE9F041044690F8390020280ED10D4670
:1014B00000294FF0010000F08E801646002A08BF78
:1014C000BDE8F08194F83800012803D10220BDE87E
:1014D000F08100BF012084F838000020E063212063
:1014E000984684F83900FEF7C5FFA684E684A16813
:1014F0000646B1F5805F03D12069002800F0A08086
:101500002F460025002084F83800E08CE0B118F167
:1015100001001BD0B8F1000F60D120680BE000BFC4
:1015200035F8021B00276FF35F214160E18C013920
:10153000E184E18C51B3016809066DD5002FEFD02D
:1015400017F8011BF1E700BF20681FE0206802E0E8
:101550000168090609D40168090606D4016809066C
:101560005CBF01685FEA0161F2D51FB117F8011B8A
:1015700005E000BF35F8021B00276FF35F214160D3
:10158000E18C0139E184E18C0029E4D1016849064C
:101590001DD4B8F1000F3FD018F101010ED1016840
:1015A000490614D4016849065CBF01685FEA4161DD
:1015B0000DD401684906F2D509E000BFFEF75AFFD5
:1015C000811B2068414527D800684006F6D52020B9
:1015D00084F839000020BDE8F08100BF206800BF1A
:1015E0000168090606D4FEF745FF811B20684145C6
:1015F000F6D911E017B117F8011B04E035F8021B0A
:1016000000276FF35F214160E18C0139E184E18CB7
:101610000029E5D1BAE700BFC16821F4D071C160EB
:10162000416921F001014161202084F8390084F8EA
:101630003A00002084F838000320BDE8F08100BFA4
:1016400000275FE7FEE70000FEE7000070470000AC
:10165000F0B583B040F27807C2F20007BA68B988E3
:10166000054610460022FEF7FFFE40F22814072030
:10167000C2F200040DF103068DF803002046314646
:1016800001226423FFF70EFC711C20460122642313
:10169000FFF70EFBB868B9889DF804600122FEF7D9
:1016A000E3FE16F0400436D0002D1CBFC6F3420006
:1016B0002870B868B9880022FEF7D6FE44F22700E9
:1016C000ADF8060040F22810C2F200000DF106014C
:1016D00002226423FFF7E6FBB868B9880122FEF70F
:1016E000C3FEB00617D5B868B9880022FEF7BCFE65
:1016F00042F22700ADF8090040F22810C2F20000C3
:101700000DF1090102226423FFF7CCFBB868B98808
:101710000122FEF7A9FE002C18BF0124204603B0C9
:10172000F0BD000081B02DE9F04183B040F22818EF
:10173000C2F2000815460E46074609A9404658223F
:101740000993FEF7EFFC40F27804C2F20004384639
:1017500031460122A760A680E580FEF785FEA068DD
:10176000E1880022FEF780FE0520FEF75BFDA06801
:10177000A1880022FEF778FE4FF40260ADF8000069
:101780006946404602226423FFF78CFBA068A188CB
:101790000122FEF769FEA068A1880022FEF764FE20
:1017A00043F62170ADF800006946404602226423EA
:1017B000FFF778FBA068A1880122FEF755FEA0681C
:1017C000A1880022FEF750FE40F22230ADF8000062
:1017D0006946404602226423FFF764FBA068A188A3
:1017E0000122FEF741FEA068A1880022FEF73CFE20
:1017F00040F22330ADF800006946404602226423DF
:10180000FFF750FBA068A1880122FEF72DFEA0681B
:10181000A1880022FEF728FE4FF44970ADF80000C1
:101820006946404602226423FFF73CFBA068A1887A
:101830000122FEF719FEA068A1880022FEF714FE1F
:1018400040F22520ADF8000069464046022264239C
:10185000FFF728FBA068A1880122FEF705FEA0681B
:10186000A1880022FEF700FE40F62670ADF80000C9
:101870006946404602226423FFF714FBA068A18852
:101880000122FEF7F1FDA068A1880022FEF7ECFD21
:1018900040F62760ADF80000694640460222642306
:1018A000FFF700FBA068A1880122FEF7DDFDA0681C
:1018B000A1880022FEF7D8FD2820ADF80000694677
:1018C000404602226423FFF7EDFAA068A1880122B6
:1018D000FEF7CAFDA068A1880022FEF7C5FD2920F9
:1018E000ADF800006946404602226423FFF7DAFAA9
:1018F000A068A1880122FEF7B7FDA068A1886FF05B
:1019000018064FF0E73700228DF804600097FEF7C5
:10191000ABFD2A208DF809000DF109014046012296
:101920006423FFF7BFFA6D4640462946052264232B
:10193000FFF7B8FAA068A1880122FEF795FD4FF0E5
:10194000C23000906FF03D02A068A1888DF804209D
:101950000022FEF789FD2B208DF809000DF1090109
:10196000404601226423FFF79DFA4046294605229E
:101970006423FFF797FAA068A1880122FEF774FD9F
:10198000A068A1880022FEF76FFD4CF22C30ADF864
:1019900009000DF10901404602226423FFF782FA93
:1019A000A068A1880122FEF75FFDA068A18800223F
:1019B000FEF75AFD4CF22D40ADF809000DF109017A
:1019C000404602226423FFF76DFAA068A188012235
:1019D000FEF74AFDA068A1880022FEF745FD4CF203
:1019E0002E50ADF809000DF1090140460222642392
:1019F000FFF758FAA068A1880122FEF735FDA0681C
:101A0000A1880022FEF730FD4CF22F60ADF80900EE
:101A10000DF10901404602226423FFF743FAA06852
:101A2000A1880122FEF720FDA068A188002200976E
:101A30008DF80460FEF718FD30208DF809000DF1D7
:101A40000901404601226423FFF72CFA404629464B
:101A500005226423FFF726FAA068A1880122FEF779
:101A600003FDA068A1880022FEF7FEFC3120ADF83E
:101A700009000DF10901404602226423FFF712FA22
:101A8000A068A1880122FEF7EFFCA068A1880022CF
:101A9000FEF7EAFC3220ADF809000DF109014046DD
:101AA00002226423FFF7FEF9A068A1880122FEF755
:101AB000DBFCA068A1880022FEF7D6FC3320ADF83D
:101AC00009000DF10901404602226423FFF7EAF9FB
:101AD000A068A1880122FEF7C7FCA068A1880022A7
:101AE000FEF7C2FC3420ADF809000DF109014046B3
:101AF00002226423FFF7D6F9A068A1880122FEF72D
:101B0000B3FCA068A1880022FEF7AEFC3520ADF83A
:101B100009000DF10901404602226423FFF7C2F9D2
:101B2000A068A1880122FEF79FFCA068A18800227E
:101B3000FEF79AFC3620ADF809000DF10901404688
:101B400002226423FFF7AEF9A068A1880122FEF704
:101B50008BFCA068A1880022FEF786FC47F250307B
:101B6000ADF809000DF10901404602226423FFF798
:101B700099F9A068A1880122FEF776FCA068A188E7
:101B80000022FEF771FC3C20ADF809000DF10901BF
:101B9000404602226423FFF785F9A068A18801224C
:101BA000FEF762FCA068A1880022FEF75DFC3D20E4
:101BB000ADF809000DF10901404602226423FFF748
:101BC00071F9A068A1880122FEF74EFC01F01AF815
:101BD000A068A1880022FEF747FC4FF62470ADF8FC
:101BE00009000DF10901404602226423FFF75AF96A
:101BF000A068A1880122FEF737FC032000F044FC16
:101C0000012000F0CFFB022000F058FB00F062F84A
:101C10002022A068A188A2700022FEF725FC47F2CE
:101C20002700ADF809000DF10901404602226423A6
:101C3000FFF738F9A068A1880122FEF715FCA0681B
:101C4000A1880022FEF710FC25208DF809004C2009
:101C50008DF80A000DF10901404602226423FFF7C6
:101C600021F9A068A1880122FEF7FEFBA068A188E7
:101C70000022FEF7F9FBE1208DF80900FF250DF1A8
:101C800009014046022264238DF80A50FFF70AF941
:101C9000A068A1880122FEF7E7FBA068A1880022C6
:101CA000FEF7E2FBE2208DF809000DF10901404644
:101CB000022264238DF80A50FFF7F4F8A068A18887
:101CC0000122FEF7D1FB00F085FA03B0BDE8F04138
:101CD00001B0704770B584B040F27806C2F20006D9
:101CE000B068B1880022FEF7BFFB40F228141D2027
:101CF000C2F200040DF107058DF8070020462946C1
:101D000001226423FFF7CEF8691C204601226423D8
:101D1000FEF7CEFFB068B1889DF808500122FEF7AB
:101D2000A3FBB068B188002205F0FB05FEF79CFB21
:101D30003D208DF80A000DF10A012046022264239D
:101D40008DF80B50FFF7AEF8B068B1880122FEF7AE
:101D50008BFBB068B1880022FEF786FB3C20ADF813
:101D60000D000DF10D01204602226423FFF79AF8C1
:101D7000B068B1880122FEF777FB04B070BD0000A7
:101D80002DE9F04782B040F27807C2F20007B86848
:101D9000B9880022FEF768FB40F22816C2F200065E
:101DA0000DF105044FF01D09304621460122642340
:101DB0008DF80590FFF776F8611C30460122642308
:101DC000FEF776FFB868B9889DF806400122FEF755
:101DD0004BFBB868B988002244F00604FEF744FBC8
:101DE0008DF806400DF105044FF03D0A30462146BE
:101DF000022264238DF805A0FFF754F8B868B9886B
:101E00000122FEF731FBB868B9880022FEF72CFBEF
:101E100030462146012264238DF80590FFF742F8F1
:101E2000651C3046294601226423FEF741FFB8684D
:101E3000B9889DF806600122FEF716FB002E4AD1F4
:101E4000B868B9880022FEF70FFB40F2281847F265
:101E50005030C2F200080DF10506ADF8050040460D
:101E6000314602226423FFF71DF8B868B9880122C1
:101E7000FEF7FAFAB868B9880022FEF7F5FA40468C
:101E80003146012264238DF80590FFF70BF8711C91
:101E9000404601226423FEF70BFFB868B9889DF81D
:101EA00006600122FEF7E0FAB868B988002246F021
:101EB0000606FEF7D9FA0DF1050140460222642319
:101EC0008DF805A08DF80660FEF7ECFFB868B988BC
:101ED0000122FEF7C9FAB868B9880022FEF7C4FAF1
:101EE00040F228161C20C2F200068DF8050030468C
:101EF000214601226423FEF7D5FF30462946012200
:101F00006423FEF7D5FEB868B9889DF80640012223
:101F1000FEF7AAFAB868B988002244F00304FEF775
:101F2000A3FA3C208DF805000DF105013046022290
:101F300064238DF80640FEF7B5FFB868B988012222
:101F4000FEF792FA02B0BDE8F08700002DE9F047F5
:101F500082B040F27807C2F20007B868B988002260
:101F6000FEF782FA40F22816C2F200060DF10504CF
:101F70004FF01D0930462146012264238DF805905B
:101F8000FEF790FF611C304601226423FEF790FEAD
:101F9000B868B9889DF806400122FEF765FAB8686E
:101FA000B988002244F00404FEF75EFA8DF806407A
:101FB0000DF105044FF03D0A30462146022264230C
:101FC0008DF805A0FEF76EFFB868B9880122FEF70C
:101FD0004BFAB868B9880022FEF746FA3046214627
:101FE000012264238DF80590FEF75CFF651C3046E6
:101FF000294601226423FEF75BFEB868B9889DF884
:1020000006600122FEF730FA002E4AD1B868B9887E
:102010000022FEF729FA40F2281847F25030C2F2A7
:1020200000080DF10506ADF80500404631460222D4
:102030006423FEF737FFB868B9880122FEF714FA67
:10204000B868B9880022FEF70FFA404631460122EF
:1020500064238DF80590FEF725FF711C4046012290
:102060006423FEF725FEB868B9889DF80660012252
:10207000FEF7FAF9B868B988002246F00406FEF7C0
:10208000F3F90DF105014046022264238DF805A005
:102090008DF80660FEF706FFB868B9880122FEF7E2
:1020A000E3F9B868B9880022FEF7DEF940F2281695
:1020B0001C20C2F200068DF80500304621460122A0
:1020C0006423FEF7EFFE3046294601226423FEF723
:1020D000EFFDB868B9889DF806400122FEF7C4F903
:1020E000B868B988002244F03F04FEF7BDF93C20EF
:1020F0008DF805000DF105013046022264238DF8AC
:102100000640FEF7CFFEB868B9880122FEF7ACF9A9
:1021100002B0BDE8F087000070B584B040F27806E8
:10212000C2F20006B2680191B18800901046002208
:10213000FEF79AF940F228142A20C2F200048DF822
:102140000D000DF10D01204601226423FEF7AAFEC9
:102150006D462046294605226423FEF7A3FEB0689B
:10216000B1880122FEF780F9B068B1880022FEF73D
:102170007BF930208DF80D000DF10D012046012274
:102180006423FEF78FFE2046294605226423FEF7CE
:1021900089FEB068B1880122FEF766F9B578B068AB
:1021A000B1880022202D28BF2025FEF75DF93120BF
:1021B0008DF80D000DF10D012046022264238DF8EB
:1021C0000E50FEF76FFEB068B1880122FEF74CF9A1
:1021D00004B070BD70B582B040F27806C2F200065D
:1021E000B068B18800220024FEF73EF98DF8024065
:1021F00040F22814C2F200040DF1020520462946DF
:1022000001226423FEF74EFE691C2046012264234E
:10221000FEF74EFDB068B1889DF803500122FEF72D
:1022200023F9B068B188002205F0FD05FEF71CF91E
:1022300020208DF805000DF10501204602226423BF
:102240008DF80650FEF72EFEB068B1880122FEF729
:102250000BF902B070BD000010B582B040F27804F6
:10226000C2F2000480B1A068A1880022FEF7FCF849
:1022700043F62170ADF8020040F22810C2F20000CF
:102280000DF102010EE000BFA068A1880022FEF758
:10229000EBF82120ADF8050040F22810C2F2000052
:1022A0000DF1050102226423FEF7FCFDA068A18860
:1022B0000122FEF7D9F802B010BD0000F0B583B0DE
:1022C00040F27807C2F20007BA68B988044610469F
:1022D00000220025FEF7C8F88DF8065040F22815B8
:1022E000C2F200050DF1060628463146012264239C
:1022F000FEF7D8FD711C284601226423FEF7D8FCA6
:10230000B868B9889DF807600122FEF7ADF806F0BD
:10231000F3052CB1012C14BF46F00C0545F008055F
:10232000B868B9880022FEF79FF820208DF80900D0
:1023300040F22810C2F200000DF1090102226423CC
:102340008DF80A50FEF7AEFDB868B9880122FEF795
:102350008BF803B0F0BD0000B0B582B040F2780554
:10236000C2F2000504467F28A868A9884FF0000241
:1023700028BF7F24FEF778F825208DF8050040F26D
:102380002810C2F200000DF10501022264238DF82D
:102390000640FEF787FDA868A9880122FEF764F8C9
:1023A00002B0B0BDF0B583B040F27807C2F20007CA
:1023B000BA68B988044610460022FEF755F840F284
:1023C00028150620C2F200050DF103068DF8030062
:1023D0002846314601226423FEF764FD711C28461D
:1023E00001226423FEF764FCB868B9889DF80450A4
:1023F0000122FEF739F8012C05F0D70604D0022C93
:1024000008BF46F0200601E046F00806B868B98823
:102410000022FEF729F840F228142620C2F2000418
:102420008DF806000DF106012046022264238DF886
:102430000760FEF737FDB868B9880122FEF714F887
:10244000B868B9880022FEF70FF806200DF10905DB
:102450008DF809002046294601226423FEF722FD5B
:10246000691C204601226423FEF722FCB868B98863
:102470009DF80A400122FDF7F7FFA01BB0FA80F09B
:10248000400903B0F0BD0000F0B583B040F278071A
:10249000C2F20007BA68B988044610460022FDF768
:1024A000E3FF40F228150620C2F200050DF10606F2
:1024B0008DF806002846314601226423FEF7F2FC1F
:1024C000711C284601226423FEF7F2FBB868B98824
:1024D0009DF807500122FDF7C7FF601E032805F095
:1024E000F90411D8DFE800F002060A0E44F00204F5
:1024F0000AE000BF44F0040406E000BF45F0060413
:1025000002E000BF45F00604B868B9880022FDF774
:10251000ABFF26208DF8090040F22810C2F200001F
:102520000DF10901022264238DF80A40FEF7BAFC7E
:10253000B868B9880122FDF797FF03B0F0BD00002D
:1025400040F27801C2F20001202828BF20208870C4
:10255000704700002DE9F04182B040F27804C2F2E9
:102560000004A2688846E18805461046002200263D
:10257000FDF77AFFA068A1880022FDF775FF8DF8AE
:10258000016040F22816C2F200060DF10107304644
:10259000394601226423FEF785FC791C304601226E
:1025A0006423FEF785FBA068A1889DF802700122D4
:1025B000FDF75AFF07F0FC02A068A188971C0022D3
:1025C000FDF752FF20208DF8040001A930460222B9
:1025D00064238DF80570FEF765FCA068A1880122D0
:1025E000FDF742FFA068E1880122FDF73DFFA068EA
:1025F000A1880022FDF738FFA0208DF807000DF11B
:102600000701304601226423FEF74CFC3046294680
:1026100042466423FEF746FCA068A1880122FDF72C
:1026200023FFA068E1880122FDF71EFFA068E18872
:102630000022FDF719FF02B0BDE8F081B0B582B00D
:1026400040F27805C2F20005A868E9880022FDF78B
:102650000BFFA868A9880022FDF706FF40F22814A6
:102660004FF6E170C2F20004ADF802000DF1020174
:10267000204602226423FEF715FCA868A9880122DF
:10268000FDF7F2FEA868A9880022FDF7EDFE4FF6DF
:10269000E270ADF805000DF1050120460222642329
:1026A000FEF700FCA868A9880122FDF7DDFE02B054
:1026B000B0BD00002DE9F04782B040F27805C2F2CB
:1026C00000059046AA688946A98806461046002259
:1026D0004FF0000AFDF7C8FE40F228170720C2F2AB
:1026E00000070DF102048DF8020038462146012250
:1026F0006423FEF7D7FB611C384601226423FEF7F2
:10270000D7FAA868A9889DF803400122FDF7ACFE1E
:10271000A868A988002286F800A0FDF7A5FE47F268
:102720002700ADF805000DF10501384602226423AB
:10273000FEF7B8FBA868A9880122FDF795FEC4F34F
:1027400040103070C4F3001089F80000C4F380100A
:1027500088F8000002B0BDE8F08700002DE9F04FD6
:1027600083B040F27804C2F20004A2680D46A1884A
:10277000064610460022FDF777FE40F2281747F282
:102780002700C2F200070DF10908ADF8090038462C
:10279000414602226423FEF785FBA068A18801223E
:1027A000FDF762FE30462946FFF7D4FEFDF762FED4
:1027B000054608F101060DF108094FF0070B00BFAF
:1027C000A068A1880022FDF74FFE08208DF80900BF
:1027D0003846414601226423FEF764FB38464946E9
:1027E00001226423FEF764FAA068A1880122FDF7A4
:1027F0003BFEA068A1880022FDF736FE3846414620
:10280000012264238DF809B0FEF74CFB38463146AF
:1028100001226423FEF74CFAA068A1889DF80AA063
:102820000122FDF721FE1AF0300F04D1FDF722FE40
:10283000401B0A28C4D30DF107000DF10601224602
:10284000FFF738FF20789DF80750F8B1A068A188FD
:1028500000220027FDF708FE8DF8097040F22817C6
:10286000C2F200073846414601226423FEF71AFBF4
:102870003846314601226423FEF71AFAA068A1887F
:102880009DF80A600122FDF7EFFD66700020002D23
:1028900018BF0125FEF7DCFEA068A1880022FDF725
:1028A000E3FD4FF6E170ADF8090040F22810C2F2E6
:1028B00000000DF1090102226423FEF7F3FAA0687B
:1028C000A1880122FDF7D0FD284603B0BDE8F08FB6
:1028D000704700002DE9F04182B01E4690460D463B
:1028E0000446FDF7C7FD301A00EB0807FDF7C2FDEF
:1028F00040F20801C2F200010968C1F3CB3179430B
:10290000019121688A682A40AA4227D1064618F117
:1029100001001FD0FDF7AEFD801BB84222D2019806
:1029200001990028A1F1010101912168896808BF7E
:10293000074601EA0500A842ECD00FE0886828406D
:10294000A8420BD188682840A84207D1886828404F
:10295000A84203D188682840A842EFD0002002B0E6
:10296000BDE8F081D4E900014268B1F5827F22F030
:10297000E00242600AD1A168B1F5004F02D0B1F582
:10298000806F03D1016821F040010160A16AB1F5B7
:10299000005F07D1016821F400510160016841F432
:1029A00000510160012084F85100002084F850009B
:1029B000032002B0BDE8F08170470000FDF760BD64
:1029C00070470000FEE70000A8B0FDF767FD4FF07C
:1029D00000094FF480300227CDE91F09CDE92570A9
:1029E0004FF4E010012627901EA8CDE92399CDE9E8
:1029F00021991E962296FDF7EFFE0F2019A981E876
:102A000081024FF48060CDE91C0919A80221FDF76D
:102A1000DBFD41F21800CDF88490C4F20200016899
:102A200040F6004841F0200101600168C4F201084D
:102A300001F02001199119990168002241F0040167
:102A4000016001684FF4407501F004011991199972
:102A5000016841F00801016000684FF4407100F026
:102A60000800199019984046FDF7FEFC1EACA8F529
:102A700080602146CDE91E79CDF88090FDF7E6FB18
:102A80001EA880E86002404621462197FDF7DEFB44
:102A900040F2D00508F51050C2F2000528604FF44E
:102AA00082702E4646F8040F4FF4007005F11802AC
:102AB000202182E803020A20C5E90A902846C5E9D8
:102AC0000299C5E90499C5F82490FEF75FF840F231
:102AD0001804C2F20004A8F54840274647F8200F22
:102AE0004FF4E1300C21C7E901093846C7E90399E1
:102AF000C7E90519C7F81C90FEF726FC6846542163
:102B000056F8042B043940F8042BF9D12B684046C1
:102B10004FF480714FF40072FEF704FE3868D7E975
:102B200003361890786807F1140E1790B86807F10B
:102B3000200B3037169087CF9BE8000F089004A831
:102B40009EE8205009910A9280E800071898DDE974
:102B500016210B97CDE90065CDE902CECDF81CB06A
:102B600000F020F800F04EF8FFF768FD40F210008A
:102B7000C2F2000003C8FFF7CFFA0120FFF76CFB99
:102B80003420FFF7E9FB2020FFF7DAFCFFF7DEF93E
:102B9000FFF7F6F8012500BF204620212570FFF73A
:102BA000DDFDF9E740F2780CC2F2000CCCF8180019
:102BB000CCF81C1000980199CCF828000298CCF8A9
:102BC0002C100399CCF830000498CCF834100599F7
:102BD000CCF838000698CCF83C100799CCF84000A7
:102BE0000898CCF844100999CCF848000A98CCF819
:102BF0004C100B99CCF82020CCF82430CCE91401EF
:102C0000704700002DE9F04FAFB044F22400C0F649
:102C10000000D0E90037D0E904411093CDE9153721
:102C20000BABD0E90265F2C300F12007CDE91941F1
:102C30008ACF0DF1740ED0E906C2CDE91765C66AD8
:102C4000CDE909318EE88A0090F83210008E15AD7A
:102C50000590ADF8840028462096CDE90767CDE9B8
:102C6000112CCDE91BC206918DF88610FDF76CFA88
:102C700040F27809C2F2000909F1180B82B25846F5
:102C800029460A23FEF70CFCD9F80800B9F804100D
:102C900000220025FDF7E8FB8DF84E5040F2281584
:102CA000C2F200050DF14E0428462146012264239C
:102CB000FEF7F8F804F10108284641460122642392
:102CC000FDF7F6FFD9F80800B9F804109DF84F5049
:102CD0000122FDF7C9FB28070ED4DFF8A40A0DF185
:102CE000580C15900FF69820031D0ECB00698CE848
:102CF0000E00199025E000BF680713D4DFF8640ABE
:102D00000DF1580C15900FF65C20071D8ECF45690C
:102D10008CE88E00018B807E1A95ADF86C108DF8D2
:102D20006E000EE0DFF8200A0DF1580C15900FF63A
:102D30001820071D8ECFD0E905508CE88E00CDE914
:102D40001A5015AF3846FDF7FFF982B2584639469A
:102D50000A23FEF7A5FBD9F80800B9F804100022F1
:102D6000FDF782FB40F228150120C2F200058DF824
:102D70004E002846214601226423FEF793F8284698
:102D8000414601226423FDF793FFD9F80800B9F802
:102D900004109DF84FA00122FDF766FBCAF38000E6
:102DA000CAF3C001CAF300148DE8130043F67A6138
:102DB0000AF00102CAF34003CAF34016C0F600014C
:102DC0003846039600F00AFD3846FDF7BDF982B299
:102DD000584639460A23FEF763FBD9F80800B9F8CC
:102DE00004100022FDF740FB02200DF14E0A8DF881
:102DF0004E002846514601226423FEF753F8284628
:102E0000414601226423FDF753FFD9F80800B9F8C1
:102E100004109DF84F400122FDF726FBC4F380000B
:102E2000C4F3C001C4F300168DE8430043F6BE614D
:102E300004F00102C4F34003C4F34014C0F60001DF
:102E40003846039400F0CAFC3846FDF77DF982B29B
:102E5000584639460A23FEF723FBD9F80800B9F88B
:102E600004100022FDF700FB03208DF84E002846D9
:102E7000514601226423FEF715F8284641460122F7
:102E80006423FDF715FFD9F80800B9F804109DF880
:102E90004F400122FDF7E8FA04F00300821C0FF610
:102EA000F401384600F09AFC3846FDF74DF982B23D
:102EB000584639460A23FEF7F3FAD9F80800B9F85C
:102EC00004100022FDF7D0FA05208DF84E002846A8
:102ED000514601226423FDF7E5FF284641460122C1
:102EE0006423FDF7E5FED9F80800B9F804109DF851
:102EF0004F400122FDF7B8FA04F07F020FF6B0014F
:102F0000384600F06BFC3846FDF71EF982B2584691
:102F100039460A23FEF7C4FAD9F80800B9F80410B4
:102F20000022FDF7A1FA06208DF84E0028465146F2
:102F300001226423FDF7B6FF28464146012264239F
:102F4000FDF7B6FED9F80800B9F804109DF84F60F7
:102F50000122FDF789FA30070CD444F20C00C0F6C8
:102F6000000090E88E0005690DF1540C8CE88E008D
:102F700019950AE0DFF84C080DF1580C15900FF682
:102F80004400071D8ECF8CE88E00818A807D15ADB0
:102F90008DF86A002846ADF86810FDF7D5F882B2C2
:102FA000584629460A23FEF77BFAC6F34100022859
:102FB00008D0012818D038BB43F69070C0F6000046
:102FC00016E000BF43F67C70C0F6000090E88E006B
:102FD0000DF1540C8CE88E00018A807CADF86410F1
:102FE0008DF866001EE000BF43F66870C0F6000072
:102FF000016842688368C76800690DF1540C8CE869
:103000008E0019900EE000BF43F65470C0F6000029
:1030100090E88E00008A0DF1540C8CE80E00189791
:10302000ADF8640015AD2846FDF78EF882B258461B
:1030300029460A230A24FEF733FAD9F80800B9F81A
:1030400004100022FDF710FA40F2281AC2F2000A1A
:103050000DF1B9015046012264238DF8B940FDF706
:1030600021FF0DF14E075046394605226423FDF736
:103070001FFED9F80800B9F804100122FDF7F4F991
:103080009DF84F009DF850109DF852209DF84E403D
:103090009DF85130CDE9001043F6BA41C0F6000169
:1030A0002846029400F09AFB2846FDF74DF882B2BC
:1030B000584629460A23FEF7F3F9D9F80800B9F86B
:1030C00004100022FDF7D0F90B208DF8B9000DF1A6
:1030D000B901504601226423FDF7E4FE504639460B
:1030E00005226423FDF7E4FDD9F80800B9F80410BF
:1030F0000122FDF7B9F99DF84F009DF850109DF899
:1031000052209DF84E409DF85130CDE9001043F615
:10311000EA41C0F600012846029400F05FFB284611
:10312000FDF712F882B2584629460A23FEF7B8F98D
:10313000D9F80800B9F804100022FDF795F90C2021
:103140008DF8B9000DF1B901504601226423FDF755
:10315000A9FE5046394601226423FDF7A9FDD9F89E
:103160000800B9F804100122FDF77EF99DF84E2001
:1031700043F64451C0F60001284600F02FFB2846D4
:10318000FCF7E2FF82B2584629460A23FEF788F987
:10319000D9F80800B9F804100022FDF765F90D20F0
:1031A0008DF8B9000DF1B901504601226423FDF7F5
:1031B00079FE5046394601226423FDF779FDD9F89E
:1031C0000800B9F804100122FDF74EF99DF84E20D1
:1031D00043F66C51C0F60001284600F0FFFA28467D
:1031E000FCF7B2FF82B2584629460A23FEF758F987
:1031F000D9F80800B9F804100022FDF735F90E20BF
:103200008DF8B9000DF1B901504601226423FDF794
:1032100049FE5046394601226423FDF749FDD9F89D
:103220000800B9F804100122FDF71EF99DF84E20A0
:1032300043F69451C0F60001284600F0CFFA284624
:10324000FCF782FF82B2584629460A23FEF728F986
:10325000D9F80800B9F804100022FDF705F90F208D
:103260008DF8B9000DF1B901504601226423FDF734
:1032700019FE5046394601226423FDF719FDD9F89D
:103280000800B9F804100122FDF7EEF89DF84E2071
:1032900043F6BC51C0F60001284600F09FFA2846CC
:1032A000FCF752FF82B2584629460A23FEF7F8F887
:1032B000D9F80800B9F804100022FDF7D5F810205D
:1032C0000DF1B9088DF8B90050464146012264233A
:1032D000FDF7E8FD5046394605226423FDF7E8FC7A
:1032E000D9F80800B9F804100122FDF7BDF89DF8DF
:1032F0004F009DF850109DF852209DF84E709DF89B
:103300005130CDE9001043F61A51C0F600012846AD
:10331000029700F063FA2846FCF716FF82B258467F
:1033200029460A23FEF7BCF8D9F80800B9F80410BA
:103330000022FDF799F811208DF8B900504641465A
:1033400001226423FDF7AEFD08F10107504639461E
:1033500001226423FDF7ACFCD9F80800B9F8041089
:103360009DF8BA400122FDF77FF843F6E45104F0DE
:103370003F02C0F60001284600F030FA2846FCF76C
:10338000E3FE82B2584629460A23FEF789F8D9F8A7
:103390000800B9F804100022FDF766F812208DF835
:1033A000B9005046414601226423FDF77BFD50469B
:1033B000394601226423FDF77BFCD9F80800B9F8EF
:1033C00004109DF8BA400122FDF74EF843F6FD5176
:1033D00004F03F02C0F60001284600F0FFF928463D
:1033E000FCF7B2FE82B2584629460A23FEF758F887
:1033F000D9F80800B9F804100022FDF735F81320B9
:103400008DF8B9005046414601226423FDF74AFD7C
:103410005046394601226423FDF74AFCD9F80800DA
:10342000B9F804109DF8BA400122FDF71DF843F6E3
:10343000166104F03F02C0F60001284600F0CEF904
:103440002846FCF781FE82B2584629460A23FEF739
:1034500027F8D9F80800B9F804100022FDF704F89D
:1034600014208DF8B9005046414601226423FDF72F
:1034700019FD5046394601226423FDF719FCD9F89D
:103480000800B9F804109DF8BA400122FCF7ECFFDF
:1034900043F62F6104F03F02C0F60001284600F019
:1034A0009DF92846FCF750FE82B2584629460A2369
:1034B000FDF7F6FFD9F80800B9F804100022FCF770
:1034C000D3FF15208DF8B9005046414601226423F0
:1034D000FDF7E8FC5046394601226423FDF7E8FB7E
:1034E000D9F80800B9F804109DF8BA400122FCF799
:1034F000BBFF43F6486104F03F02C0F600012846D6
:1035000000F06CF92846FCF71FFE82B258462946A7
:103510000A23FDF7C5FFD9F80800B9F80410002206
:10352000FCF7A2FF16208DF8B90050464146012253
:103530006423FDF7B7FC5046394601226423FDF7AA
:10354000B7FBD9F80800B9F804109DF8BA40012279
:10355000FCF78AFF43F6616104F03F02C0F6000108
:10356000284600F03BF92846FCF7EEFD82B25846AB
:1035700029460A23FDF794FFD9F80800B9F804108A
:103580000022FCF771FF1C208DF8B900504641461F
:1035900001226423FDF786FC50463946012264234C
:1035A000FDF786FBD9F80800B9F804109DF8BA4079
:1035B0000122FCF759FFC4F38000C4F3C001C4F337
:1035C00000168DE8430043F6077104F00102C4F3CE
:1035D0004003C4F34014C0F600012846039400F0F1
:1035E000FDF82846FCF7B0FD82B2584629460A236A
:1035F000FDF756FFD9F80800B9F804100022FCF7CF
:1036000033FF1D208DF8B900504641460122642346
:10361000FDF748FC5046394601226423FDF748FB7C
:10362000D9F80800B9F804109DF8BA600122FCF737
:103630001BFF700712D443F6D870C0F6000090E864
:103640008E000DF1540C05698CE88E00818A807D16
:103650001995ADF868108DF86A000EE043F6A47075
:10366000C0F6000090E88E000569808A0DF1540CC8
:103670008CE88E001995ADF8680015AD2846FCF76A
:1036800063FD82B2584629460A23FDF709FFB007B9
:1036900014D443F6F070C0F6000090E88E000DF1EF
:1036A000540CD0E904658CE88E00018B807ECDE956
:1036B0001965ADF86C108DF86E0010E043F6BC7023
:1036C000C0F6000090E88E00D0E90465008B0DF193
:1036D000540C8CE88E0019961A95ADF86C0015AD57
:1036E0002846FCF731FD82B2584629460A23FDF7E9
:1036F000D7FE109815900F9816900E9817900D9869
:1037000018900C9819900B981A9007982090089888
:103710001F9009981E900A981D9011981C9012985D
:103720001B9006988DF886000598ADF88400284611
:10373000FCF70AFD82B2584629460A23FDF7B0FE7F
:103740002FB0BDE8F08F00BF4352433A0D0A09097C
:10375000456E61626C65642C203220427974657319
:10376000200D0A004352433A0D0A0909456E616271
:103770006C65642C20312042797465200D0A0000AC
:103780004352433A0D0A090944697361626C6564E6
:10379000200D0A0053455455505F41573A0D0A0910
:1037A000092564206279746573200D0A0000000009
:1037B00052465F43483A0D0A0909256420434820D0
:1037C0000D0A00004461746120526174653A0D0A6B
:1037D0000909324D627073200D0A00000FB4084BC6
:1037E00010B504A902AA039800F01CF8044602A927
:1037F000002000F048FA204610BC5DF814FB0000E1
:10380000873C000802E008C8121F08C1002AFAD14C
:1038100070477047002001E001C1121F002AFBD150
:10382000704700002DE9FF4F8DB00F46054600267A
:1038300006E025280BD0DDE90F1290476D1C761CA1
:1038400028780028F5D111B03046BDE8F08F00246B
:10385000A246A1460122EC4900E0044315F8013FCD
:10386000203B02FA03F00842F7D128782A2810D02A
:103870006FF02F022878A0F13001092914D80AEB43
:103880008A0102EB410144F0020400EB010A6D1CC5
:10389000F0E701CF5FEA000A03D544F40054CAF10F
:1038A000000A44F002046D1C28782E2817D115F860
:1038B000010F44F004042A280ED06FF02F0228785C
:1038C000A0F1300109290AD809EB890102EB410175
:1038D00000EB01096D1CF2E757F8049B6D1C28787A
:1038E0006C280FD006DC4C2817D068280DD06A2829
:1038F00014D104E0742810D07A280FD10DE044F4DC
:1039000000140AE044F4801401E044F4401469789F
:10391000814202D104F580146D1C6D1C2A786E2A38
:103920001FD00CDC632A31D004DC002A8BD0582A4B
:1039300011D1A3E0642A68D0692A0CD165E0732A0A
:103940002ED004DC6F2A73D0702A04D19BE0752A34
:103950006FD0782A6ED01046DDE90F129047761CA2
:1039600050E1C4F30250022806D0032809D00428ED
:1039700001CF09D0066045E101CFF117C0E9006130
:1039800040E101CF06803DE106703BE117F8040BF2
:103990008DF8000000208DF80100EB46012003E0C7
:1039A00057F804BB4FF0FF3061074FF0000102D41D
:1039B0000DE008F10101884649450FDA8045F8DB42
:1039C0001BF808100029F4D108E008F1010188462D
:1039D0008142FADB1BF808100029F6D1DDE90F233C
:1039E000AAEB08008146214600F036F9304400EB8E
:1039F000080604E0DDE90F121BF8010B9047B8F14F
:103A00000108F7D221464846F7E00A21C4F30253E1
:103A10004FF0000B0891022B04D001CFC117032BEC
:103A200009D00AE0FF1D27F00707F7E8020108E0C8
:103A300032E01FE020E000B2C117042B01D140B2F8
:103A4000C117031E71F1000307DA4FF0000CD0EB31
:103A50000C006CEB01012D2302E0230504D52B2380
:103A60008DF82430012303E0E30701D02023F7E79A
:103A7000984658E00A2110E010210EE010204FF087
:103A8000000B08900CE010214FF0000B44F00404F0
:103A90004FF00809089103E008214FF0000B08914E
:103AA000C4F30253022B04D001CF0021032B06D014
:103AB00006E0FF1D27F00707F7E8020103E080B2E8
:103AC000042B00D1C0B24FF0000823072BD5702A79
:103AD00007D0DDF820C08CF0100C5CEA0B0C05D090
:103AE0000EE040238DF82430012308E050EA010362
:103AF00006D030238DF824308DF8252002239846F7
:103B0000DDF820C08CF0080C5CEA0B0C0BD150EAFD
:103B1000010301D1630706D530238DF824304FF01F
:103B20000108A9F10109582A04D038A20B9208AA69
:103B30000A920BE03AA2F9E75B46089AFCF70BFB06
:103B40000B9B9B5C0A9A521E0A92137050EA010268
:103B5000F2D10A98ADEB000000F1200B600702D50E
:103B600024F4803401E04FF00109D94502DDA9EBCE
:103B70000B0000E0002000EB0B0141440890AAEB91
:103B8000010AE00306D4DDE90F232146504600F088
:103B900063F806444FF0000908E009A911F809008C
:103BA000DDE90F12904709F10109761CC145F4DBEC
:103BB000E0030CD5DDE90F232146504600F04CF818
:103BC000064404E0DDE90F1230209047761C089986
:103BD000481E08900029F5DC08E00A980A99007848
:103BE000491C0A91DDE90F129047761CBBF10001D8
:103BF000ABF1010BF1DC21465046DDE90F2300F06B
:103C000019F806446D1C1BE60928010030313233D7
:103C10003435363738396162636465660000000008
:103C200030313233343536373839414243444546F2
:103C3000000000002DE9F041044600251E4617460D
:103C4000880404D405E039462020B0476D1C641E6A
:103C5000F9D52846BDE8F0812DE9F041044600255C
:103C60001E469046C80301D5302700E0202788046F
:103C700004D505E041463846B0476D1C641EF9D5B1
:103C80002846BDE8F0810A68531C0B60107070472D
:103C9000010200000000000000000102030406070A
:103CA00008090000000001020304020304050607DE
:103CB00008090A0B0C0D0E0F101052585F50697056
:103CC00065302041646472733A0D0A090925303267
:103CD000582C253032582C253032582C253032586B
:103CE0002C2530325820200D0A0052585F50697040
:103CF00065312041646472733A0D0A090925303236
:103D0000582C253032582C253032582C253032583A
:103D10002C2530325820200D0A005458204164646C
:103D200072733A0D0A0909253032582C2530325861
:103D30002C253032582C253032582C253032582042
:103D4000200D0A0052585F5069706532204164644A
:103D500072733A0D0A090978782C78782C78782CC7
:103D600078782C2530325820200D0A0052585F50A8
:103D7000697065332041646472733A0D0A090978E9
:103D8000782C78782C78782C78782C25303258203C
:103D9000200D0A0052585F506970653420416464F8
:103DA00072733A0D0A090978782C78782C78782C77
:103DB00078782C2530325820200D0A0052585F5058
:103DC000697065352041646472733A0D0A09097897
:103DD000782C78782C78782C78782C2530325820EC
:103DE000200D0A0052585F50575F50303A0D0A09B3
:103DF000092564206279746573200D0A0052585FAA
:103E000050575F50313A0D0A0909256420627974D0
:103E10006573200D0A0052585F50575F50323A0DBB
:103E20000A09092564206279746573200D0A00521D
:103E3000585F50575F50333A0D0A090925642062D4
:103E400079746573200D0A0052585F50575F5034E3
:103E50003A0D0A09092564206279746573200D0AF8
:103E60000052585F50575F50353A0D0A09092564D2
:103E7000206279746573200D0A00454E41413A0D68
:103E80000A090950303A0925640D0A090950313AE6
:103E90000925640D0A090950323A0925640D0A09F9
:103EA0000950333A0925640D0A090950343A0925A5
:103EB000640D0A090950353A0925640D0A00454E7A
:103EC0005F5258414444523A0D0A090950303A09A8
:103ED00025640D0A090950313A0925640D0A0909BA
:103EE00050323A0925640D0A090950333A0925640C
:103EF0000D0A090950343A0925640D0A090950359B
:103F00003A0925640D0A0044594E50445F706970A7
:103F1000653A0D0A090950303A0925640D0A090964
:103F200050313A0925640D0A090950323A092564CD
:103F30000D0A090950333A0925640D0A090950345C
:103F40003A0925640D0A090950353A0925640D0A14
:103F50000000000052465F5057523A0D0A090930DE
:103F60006442200D0A00000052465F5057523A0D3D
:103F70000A09092D31326442200D0A0052465F5071
:103F800057523A0D0A09092D366442200D0A0000E5
:103F900052465F5057523A0D0A09092D3138644292
:103FA000200D0A00454E5F44504C3A0D0A09094560
:103FB0006E61626C6564200D0A000000454E5F4131
:103FC000434B5F5041593A0D0A0909456E61626CD5
:103FD0006564200D0A000000454E5F44504C3A0DC8
:103FE0000A090944697361626C6564200D0A000066
:103FF000454E5F41434B5F5041593A0D0A09094410
:10400000697361626C6564200D0A0000446174612B
:1040100020526174653A0D0A0909314D62707320AE
:104020000D0A00000D0A2A2A2A2A2A2A2A2A2A2ABE
:104030002A2A2A2A2A2A2A2A2A2A2A2A2A2A2A2AE0
:104040002A2A2A2A2A2A2A2A2A2A2A2A2A2A2A2AD0
:104050002A2A2A2A0D0A00007840000800000020C1
:1040600018000000043800089040000818000020E4
:104070007005000014380008010000001000000066
:104080000024F40000000000AA44332211000000C4
:04000005080000ED02
:00000001FF
