:020000040800F2
:100000009805002001010008551600084D1600084B
:10001000511600081D0200084529000800000000D4
:100020000000000000000000000000003929000866
:100030002102000800000000512800083D290008A6
:100040001B0100081B0100081B0100081B01000820
:100050001B0100081B0100081B0100081B01000810
:100060001B0100081B0100081B0100081B01000800
:100070001B0100081B0100081B0100081B010008F0
:100080001B0100081B0100081B0100081B010008E0
:100090001B0100081B0100081B0100081B010008D0
:1000A0001B0100081B0100081B0100081B010008C0
:1000B0001B0100081B0100081B0100081B010008B0
:1000C0001B0100081B0100081B0100081B010008A0
:1000D0001B0100081B0100081B0100081B01000890
:1000E0001B0100081B0100081B010008DFF80CD0F1
:1000F00000F062F8004800474929000898050020F0
:100100000648804706480047FEE7FEE7FEE7FEE7B1
:10011000FEE7FEE7FEE7FEE7FEE7FEE7412900080F
:10012000ED00000840EA01039B0703D009E008C97D
:10013000121F08C0042AFAD203E011F8013B00F8AC
:10014000013B521EF9D27047421C10F8011B0029D6
:10015000FBD1801A70472DE9F05F054600209246DA
:100160009B4688460646814640241BE02846414679
:100170004746224600F041F853465A46C01A91417C
:1001800010D311461846224600F028F82D1A67EBC6
:1001900001084F4622460120002100F01FF817EB0E
:1001A00000094E41201EA4F10104DFDC484631461F
:1001B0002A464346BDE8F09F064C074D06E0E0683E
:1001C00040F0010394E8070098471034AC42F6D39E
:1001D000FFF790FF3040000850400008202A04DB61
:1001E000203A00FA02F1002070479140C2F120034A
:1001F00020FA03F3194390407047202A04DB203A89
:1002000021FA02F00021704721FA02F3D040C2F136
:10021000200291400843194670470000FEE70000A5
:1002200070470000B0B5044600F024F9054640F2DE
:100230000000C2F200000078611C18BF044400BF37
:1002400000F018F9401BA042FAD3B0BD2DE9F04FE1
:1002500082B00E68002E00F0038140F20C4C41F297
:1002600000424FF6FF7EC4F2010CC4F201020427E3
:1002700000240123C1F2100E4FF0000A4FF00009D4
:10028000904208BF0327009745E000BF012704F014
:100290000C030F229A402BEA020207FA03F34FEAFB
:1002A0009A051A4346F82520D1F804B040F20045DB
:1002B000C4F201055FEACB322A6854BF22EA080281
:1002C00042EA08022A606A685FEA8B3354BF22EA76
:1002D000080242EA08026A605FEACB23AA6854BFB8
:1002E00022EA080242EA08025FEA8B23AA60DCF8ED
:1002F00000204FF0010354BF22EA080242EA08023C
:10030000CCF800200E680AF1010A36FA0AF204F16C
:10031000040400F0A58003FA0AF816EA080FF1D0E9
:100320004E68764512DC122E56D8DFE806F0350B03
:100330004549555555555555555555555555554D91
:10034000510000BFD1F80C9046E000BF4FF6FF729D
:10035000C1F2210296420FDC0022C1F21102964244
:100360001AD00022C1F21202964215D00022C1F228
:100370002102964210D02FE00022C1F222029642C2
:100380000AD00022C1F23102964205D00022C1F209
:100390003202964220D100BF8A684AB1012A14BFB6
:1003A000C0F81480C0F810804FF0080914E000BFB6
:1003B0004FF0040910E000BFCA6802F108090BE021
:1003C0004FF0000908E000BFCA6802F1040903E029
:1003D000CA6802F10C0900BF22460646BAF1080FAE
:1003E00024BF203A043637680F25954027EA0505D3
:1003F00009FA02F22A433260CA79D2067FF582AF47
:1004000041F21803C4F202031A6842F001021A60B2
:100410001A6802F001020192019A40F20042C4F20D
:100420000102A2F57E762AF0030256F802B040F6E9
:100430000002C4F20102904210D040F60042C4F221
:10044000010290423FF422AF41F20002C4F20102E5
:10045000009F904208BF022719E700BF002716E758
:1004600002B0BDE8F08F0000002A08BF0904016156
:100470007047000040F29410C2F20000006870471C
:1004800040F2000040F29411C2F20000C2F20001FA
:1004900000780A68104408607047000080B542F296
:1004A0000000C4F20200016841F010010160032065
:1004B00000F07AF8002000F005F800F027F800209E
:1004C00080BD000070B540F20006C2F2000640F2A6
:1004D00010013278C2F200014FF47A730968B3FB5D
:1004E000F2F20446B1FBF2F1084600F019FF0F2CBE
:1004F0004FF0010508D838B94FF0FF3021460022EF
:10050000002500F025F87460284670BD82B041F2E5
:100510001800C4F202000168022241F001010160EA
:10052000016801F0010101910199416841F0805198
:100530004160406800F08050009000980420C4F2B0
:100540000100016862F31A61016002B070470000A7
:1005500010B54EF60C5CCEF2000CDCF80030C3F3A4
:10056000022E8EF00704042C28BF0424BEF10303DE
:100570004FF0FF3E0EFA04F438BF0023A143994028
:100580000EFA03F39A43114300F00F0200F16043A7
:100590000901043A03F564436244002848BF02F1AC
:1005A0000C03197010BD00004EF60C51CEF2000184
:1005B0000A684FF6FF031A4060F30A2242F0806097
:1005C00040F0FD70086070472DE9F04381B00028CD
:1005D00000F0858042F20008C4F202080446D8F810
:1005E00000000D4600F0070088420CD2D8F8000049
:1005F00020F007002843C8F80000D8F8000000F0F9
:100600000700A8426BD1206841F204098107C4F2B7
:10061000020917D5410705D5D9F8001041F4E0616A
:10062000C9F80010010705D5D9F8001041F4605150
:10063000C9F80010D9F80010A26821F0F0011143A8
:10064000C9F80010C00741D1D8F8000000F0070039
:10065000A8420CD9D8F8000020F007002843C8F8B9
:100660000000D8F8000000F00700A84237D1206849
:10067000410707D5D9F80010E26821F4E061114381
:10068000C9F80010000708D5D9F80000216920F446
:10069000605040EAC100C9F80000D9F8002002F01B
:1006A0000C00082841F20020C0F27A0050D143F635
:1006B0008543C2F38341C0F60003595CD2033BD4A7
:1006C00040F60010C0F23D00484341E06068022857
:1006D0000AD001282AD159F8041C890308D4012022
:1006E00001B0BDE8F08300BF59F8041C8901F6D5BC
:1006F000D9F8001021F003010843C9F80000FFF702
:10070000B9FE064641F28837D9F80000616800F06A
:100710000C00B0EB810F97D0FFF7ACFE801BB84206
:10072000F2D9032001B0BDE8F08300BF59F8041CE2
:100730008907D4D5DCE700BFD9F8002043F664432D
:10074000C2F34042C0F600039A5C4843B0FBF2F0AB
:10075000D9F8001043F66642C1F30311C0F6000257
:10076000515C40F2100220FA01F140F20400C2F2A2
:1007700000000068C2F200021160FFF7A3FE002033
:1007800001B0BDE8F083000040F2100041F2040126
:10079000C2F20000C4F202010068096843F6764222
:1007A000C1F30221C0F60002515CC840704700004E
:1007B00040F2100041F20401C2F20000C4F2020152
:1007C0000068096843F67642C1F3C221C0F6000210
:1007D000515CC840704700002DE9F04182B000280C
:1007E00068D00446007841F20006C007C4F2020651
:1007F00025D0706800F00C0004281BD0706800F051
:100800000C00082802D17068C00313D46068002867
:1008100000F06881B0F5A02F00F07C81B0F5803F3A
:1008200000F07C81306820F480303060306820F443
:10083000802076E13068800301D56068D0B32078ED
:10084000800718D5706810F00C0F07D0706800F0A2
:100850000C0008286ED17068C0036BD43068800724
:1008600002D52069012825D13068616920F0F8009F
:1008700040EAC1003060207800071FD4207840078C
:1008800032D4E56995B1706800F00C00082840F09A
:100890008F80012D0ED07068216A00F480328A4268
:1008A00008D1616A00F47010884203D1002002B0C0
:1008B000BDE8F081012002B0BDE8F081A069002808
:1008C00062D00020C4F242200121C0F88014FFF75A
:1008D000D1FD0546706A800700F18C80FFF7CAFDE4
:1008E000401B0228F6D92AE1F06910F0805808D19F
:1008F000F06940F08050F061F06900F080500090A5
:10090000009847F20007C4F200073868C00529D4F0
:10091000386840F480703860FFF7ACFD054600BFD2
:100920003868C0051ED4FFF7A5FD401B6428F7D921
:1009300005E100BF2069002840F20000C4F2422017
:1009400000F0828001210160FFF794FD054600BFA1
:10095000306880073FF588AFFFF78CFD401B022809
:10096000F6D9ECE0E068002800F08080052800F06F
:100970009780012800F09880306A20F001003062F2
:10098000306A20F0040092E00020C4F242200021EE
:10099000C0F88014FFF76EFD054600BF706A80073F
:1009A0007FF56CAFFFF766FD401B0228F6D9C6E065
:1009B0000027C4F2422700203866FFF75BFD022DB6
:1009C00005460BD13068800140F1BE80FFF752FD33
:1009D000401B02284FF00300F4D968E7306880011B
:1009E0007FF564AFFFF746FD401B02284FF0030080
:1009F000F4D95CE740F21000C2F20000006844F64F
:100A0000D351C1F26201A0FB0101480A019000BF6D
:100A100000BF0198411E002801913FF42FAF00BF95
:100A20000198411E002801913FF428AF00BF0198B2
:100A3000411E002801913FF421AF00BF0198411EE3
:100A400000280191E4D119E700210160FFF712FDB0
:100A5000054600BF306880077FF50DAFFFF70AFD40
:100A6000401B02284FF00300F4D920E7306A20F041
:100A700001003062306A20F004003062FFF7FAFCB7
:100A8000054641F2883700BF306A800720D5FFF75E
:100A9000F1FC401BB8424FF00300F5D907E700BF57
:100AA000306A40F004003062306A40F00100306289
:100AB000FFF7E0FC054641F2883700BF306A800747
:100AC00006D4FFF7D7FC401BB842F7D937E000BF88
:100AD000B8F1000F7FF4D5AEF06920F08050F061DE
:100AE000CFE600BF306820F480303060306820F4FA
:100AF00080203060FFF7BEFC054600BF30688003F1
:100B00007FF59DAEFFF7B6FC401B64284FF0030055
:100B1000F4D9CCE6306840F480203060306840F48E
:100B200080303060FFF7A6FC054600BF30688003C8
:100B30003FF585AEFFF79EFC401B6428F6D90320E5
:100B400002B0BDE8F08100BF206AB0F5803F05D15A
:100B50007168A26821F40031114371607168626AA2
:100B600021F4741111430843706001203866FFF7C7
:100B700081FC0446306880013FF598AEFFF77AFCAF
:100B8000001B02284FF00300F4D990E670B538B18D
:100B90000446406A30B10020206104F1140007E0EF
:100BA000012070BD6068B0F5827F03D004F11C00A5
:100BB000002101600026A66294F8510020B9204669
:100BC00084F8506000F038F8022084F8510094E86E
:100BD000071001F48271036802F4044223F0400319
:100BE0000360236911440CF40062114403F0020213
:100BF0006369114403F00102A369E569114403F438
:100C00000072114405F03802256A114405F0800293
:100C1000A56A114305F4005211430160042101EA61
:100C200013414160C16921F40061C1610120666521
:100C300084F85100304670BD70B586B040F600446F
:100C4000C4F201040068A4F55441002688420496C9
:100C500002D006B070BD00BF41F21800C4F202001D
:100C6000416802AD41F480414160416801F4804136
:100C700001910199016841F008010160006829466D
:100C800000F00800019001984FF4204002900220EB
:100C90000390032005902046FFF7D8FA4FF48040D8
:100CA000CDE90206204629460496FFF7CFFA06B0A2
:100CB00070BD00002DE9F04381B0044640681D4638
:100CC0001746B0F5827F0E4601D1A068E0B394F8D4
:100CD0005000012804D1022001B0BDE8F08300BF1C
:100CE0004FF0010984F85090FFF7C4FB94F85110BD
:100CF000012927D18046002E4FF0010018BF002F98
:100D000000F0C9800420002184F851006165A663C9
:100D1000A787E7872163A186E186A2682068B2F5EC
:100D2000004F216461644BD00168490653D5E168E6
:100D3000E08F002957D0002800F08680681C1CD165
:100D40002DE000BF0220A6E0042084F851002046D8
:100D5000314632463B46009500F090F901B0BDE8BF
:100D6000F08300BFC068A16B21F8020BA163E08F84
:100D70000138E087E08F002866D020688168C907C5
:100D8000F0D1FFF777FBA0EB0800A842F2D30320D5
:100D900081E000BFFFF76EFBE08F002854D0206891
:100DA0008168C907F6D0C068A16B21F8020BA16366
:100DB000E08F0138E087E08F0028F0D144E000BFE9
:100DC000016821F040010160016821F48041016067
:100DD00001684906ABD4016841F040010160E16857
:100DE000E08F0029A7D178B3681C0CD11CE000BFAC
:100DF000007BA16B0870A06B0130A063E08F01380D
:100E0000E087E08F00B320688168C907F0D1FFF761
:100E100031FBA0EB0800A842F3D303203BE000BF66
:100E2000FFF728FBE08F78B120688168C907F7D009
:100E3000007BA16B0870A06B0130A063E08F0138CC
:100E4000E087E08F0028EFD16068B0F5827F11D194
:100E5000A068B0F5004F02D0B0F5806F0AD12168CC
:100E6000B0F5806F0A6822F040020A6002D1204685
:100E7000012101E0204680212A46434601F0EAFC98
:100E800028B1606D40F02000606520206065606DD5
:100E9000002818BF0120002184F8519084F85010D8
:100EA00001B0BDE8F08300002DE9F04381B00446B5
:100EB00090F85000012803D1022001B0BDE8F08372
:100EC0004FF001091D4616460F4684F85090FFF773
:100ED000D1FA94F85110012944D18046002F4FF0E7
:100EE000010018BF002E00F0C0800320002184F80C
:100EF000510061652763A686E686A163A187E18725
:100F0000A0682164B0F5004F2068616407D10168D2
:100F100021F040010160016841F4804101600168F5
:100F2000490603D4016841F0400101606168731E05
:100F3000E268B1FA81F1B3FA83F349095B09B2F5CA
:100F4000006F41EA03013BD131B137F8021BC160A8
:100F50002763E08E0138E086E08E00286AD0681CA6
:100F60000DD11CE0022080E0216B31F8022BC26021
:100F70002163E08E0138E086E08E00285AD0206898
:100F800081688907F0D4FFF775FAA0EB0800A84242
:100F9000F2D338E0FFF76EFAE08E00284AD02068DE
:100FA00081688907F6D5216B31F8022BC260216375
:100FB000E08E0138E086E08E0028F0D13AE000BFF4
:100FC00039B139780173206B01302063E08E01382C
:100FD000E086E08E70B3681C0BD11BE0216B0978B2
:100FE0000173206B01302063E08E0138E086E08ED3
:100FF00000B3206881688907F0D4FFF73BFAA0EBC3
:101000000800A842F3D303202FE000BFFFF732FA15
:10101000E08E78B1206881688907F7D5216B09785F
:101020000173206B01302063E08E0138E086E08E92
:101030000028EFD1204680212A46434601F00AFCD1
:1010400028B1606D40F02000606520206065A068D8
:1010500038B9002000902068C16800918068009035
:101060000098606D002818BF0120002184F851907D
:1010700084F8501001B0BDE8F08300002DE9F04382
:1010800081B0044690F85000012803D1022001B03D
:10109000BDE8F08301201E4615460F4684F8500037
:1010A000FFF7E8F994F85110814601290CD06068E7
:1010B000B0F5827F40F0A080A06800284FF00200C9
:1010C00008BF042940F09980002F4FF0010018BF9D
:1010D000002D00F09280002E00F08F8094F85100D7
:1010E000002104281CBF052084F851006165A56318
:1010F000E687A6872763E6862068A6862164616462
:101100000168490603D4016841F04001016061684B
:10111000731EE268B1FA81F1B3FA83F3DDF820803F
:1011200049095B09B2F5006F41EA03016ED131B1A3
:1011300037F8021BC1602763E08E0138E086012585
:1011400018F1010031D101E0FFF794F9E08E18B9F0
:10115000E08F002800F0C2802068816889070CD5E4
:10116000E18E51B1012D08D1216B002531F8022B00
:10117000C2602163E18E0139E1868168C907E3D04D
:10118000E18F0029E0D0C068A16B012521F8020B96
:10119000A163E08F0138E087D6E700BFFFF76AF967
:1011A000A0EB0900404580F0A980E08E18B9E08FDF
:1011B000002800F093802068816889070CD5E18EB3
:1011C00051B1012D08D1216B002531F8022BC260ED
:1011D0002163E18E0139E1868168C907DED0E18FA4
:1011E0000029DBD0C068A16B012521F8020BA163A7
:1011F000E08F0138E087D1E70220012184F8511007
:10120000002184F8501001B0BDE8F08339B139787D
:101210000173206B01302063E08E0138E0860125E8
:1012200018F1010032D101E0FFF724F9E08E10B986
:10123000E08F002852D02068816889070ED5E18EA2
:1012400061B1012D0AD1216B002509780173216B51
:10125000206801312163E18E0139E1868168C90787
:10126000E2D0E18F0029DFD0C068A16B01250870B2
:10127000A06B0130A063E08F0138E087D4E700BFA6
:10128000FFF7F8F8A0EB0900404539D2E08E08B925
:10129000E08F18B32068816889070ED5E18E61B1AF
:1012A000012D0AD1216B002509780173216B20687B
:1012B00001312163E18E0139E1868168C907DFD000
:1012C000E18F0029DCD0C068A16B01250870A06BFC
:1012D0000130A063E08F0138E087D1E7204680210C
:1012E00042464B4601F0B6FA60B1606D40F0200016
:1012F00060652020606501207FE700BF03207CE758
:1013000003207AE7A06800284FF000007FF475AF53
:1013100000902168CA6800928968009100996CE782
:10132000411E0020B0EB116F1CBF012070474EF230
:101330001002CEF2000251604EF62351CEF20001AF
:10134000F0230B700721906011607047002804BFE4
:101350000120704710B5044690F8390028B90020E4
:1013600084F83800204600F061F8242084F8390021
:101370002068D4E90212C36823F40053C3600369F0
:1013800023F440531A430261D4E904231143C26891
:10139000194341F20C639A431143C1604169A26948
:1013A00021F44071114343F60002C4F2010290425D
:1013B000416103D0FFF7E8F902E000BFFFF7F8F959
:1013C0006268192148439100B0FBF1F048F21F51C7
:1013D000C5F2EB11A0FB01235A094FF69C73C0F62E
:1013E000FF7302FB0300322303EB0010A0FB01019B
:1013F000F02303EA5113206803EB0212C1F34311F7
:1014000011448160016921F490410161416921F039
:101410002A014161C16841F40051C16000202021CE
:10142000E06384F8391084F83A1010BD70B586B0C6
:1014300040F60004C4F20104006804F5405100269F
:101440008842049602D006B070BD00BF41F2180079
:10145000C4F20200016802AD41F4804101600168FC
:1014600001F4804101910199016841F0040101609A
:101470000068294600F00400019001984FF40070C4
:10148000029002200390032005902046FEF7DEFE26
:101490004FF48060CDE90206204629460496FEF707
:1014A000D5FE06B070BD00002DE9F041044690F86D
:1014B000390020280ED10D4600294FF0010000F020
:1014C0008E801646002A08BFBDE8F08194F83800E7
:1014D000012803D10220BDE8F08100BF012084F87B
:1014E00038000020E0632120984684F83900FEF798
:1014F000C1FFA684E684A1680646B1F5805F03D1EA
:101500002069002800F0A0802F460025002084F8E4
:101510003800E08CE0B118F101001BD0B8F1000FE9
:1015200060D120680BE000BF35F8021B00276FF385
:101530005F214160E18C0139E184E18C51B30168A4
:1015400009066DD5002FEFD017F8011BF1E700BF9A
:1015500020681FE0206802E00168090609D40168DC
:10156000090606D4016809065CBF01685FEA0161EB
:10157000F2D51FB117F8011B05E000BF35F8021BBB
:1015800000276FF35F214160E18C0139E184E18C38
:101590000029E4D1016849061DD4B8F1000F3FD0FD
:1015A00018F101010ED10168490614D401684906F9
:1015B0005CBF01685FEA41610DD401684906F2D55C
:1015C00009E000BFFEF756FF811B2068414527D880
:1015D00000684006F6D5202084F839000020BDE8D8
:1015E000F08100BF206800BF0168090606D4FEF73D
:1015F00041FF811B20684145F6D911E017B117F86A
:10160000011B04E035F8021B00276FF35F214160E6
:10161000E18C0139E184E18C0029E5D1BAE700BF12
:10162000C16821F4D071C160416921F001014161BB
:10163000202084F8390084F83A00002084F838002B
:101640000320BDE8F08100BF00275FE7FEE7000050
:10165000FEE7000070470000002000F001B8000025
:10166000F0B583B040F21807C2F20007BA68B98833
:10167000054610460022FEF7F7FE40F23C14072014
:10168000C2F200040DF103068DF803002046314636
:1016900001226423FFF708FC711C20460122642309
:1016A000FFF708FBB868B9889DF804600122FEF7CF
:1016B000DBFE16F0400436D0002D1CBFC6F34200FE
:1016C0002870B868B9880022FEF7CEFE44F22700E1
:1016D000ADF8060040F23C10C2F200000DF1060128
:1016E00002226423FFF7E0FBB868B9880122FEF705
:1016F000BBFEB00617D5B868B9880022FEF7B4FE65
:1017000042F22700ADF8090040F23C10C2F200009E
:101710000DF1090102226423FFF7C6FBB868B988FE
:101720000122FEF7A1FE002C18BF0124204603B0C1
:10173000F0BD000081B02DE9F04183B040F23C18CB
:10174000C2F2000815460E46074609A9404658222F
:101750000993FEF7E7FC40F21804C2F20004384691
:1017600031460122A760A680E580FEF77DFEA068D5
:10177000E1880022FEF778FE0520FEF753FDA06801
:10178000A1880022FEF770FE4FF40260ADF8000061
:101790006946404602226423FFF786FBA068A188C1
:1017A0000122FEF761FEA068A1880022FEF75CFE20
:1017B00043F62170ADF800006946404602226423DA
:1017C000FFF772FBA068A1880122FEF74DFEA0681A
:1017D000A1880022FEF748FE40F22230ADF800005A
:1017E0006946404602226423FFF75EFBA068A18899
:1017F0000122FEF739FEA068A1880022FEF734FE20
:1018000040F22330ADF800006946404602226423CE
:10181000FFF74AFBA068A1880122FEF725FEA06819
:10182000A1880022FEF720FE4FF44970ADF80000B9
:101830006946404602226423FFF736FBA068A18870
:101840000122FEF711FEA068A1880022FEF70CFE1F
:1018500040F22520ADF8000069464046022264238C
:10186000FFF722FBA068A1880122FEF7FDFDA0681A
:10187000A1880022FEF7F8FD40F62670ADF80000C2
:101880006946404602226423FFF70EFBA068A18848
:101890000122FEF7E9FDA068A1880022FEF7E4FD21
:1018A00040F62760ADF800006946404602226423F6
:1018B000FFF7FAFAA068A1880122FEF7D5FDA0681B
:1018C000A1880022FEF7D0FD2820ADF8000069466F
:1018D000404602226423FFF7E7FAA068A1880122AC
:1018E000FEF7C2FDA068A1880022FEF7BDFD2920F9
:1018F000ADF800006946404602226423FFF7D4FA9F
:10190000A068A1880122FEF7AFFDA068A1886FF052
:1019100018064FF0E73700228DF804600097FEF7B5
:10192000A3FD2A208DF809000DF10901404601228E
:101930006423FFF7B9FA6D46404629460522642321
:10194000FFF7B2FAA068A1880122FEF78DFD4FF0E3
:10195000C23000906FF03D02A068A1888DF804208D
:101960000022FEF781FD2B208DF809000DF1090101
:10197000404601226423FFF797FA40462946052294
:101980006423FFF791FAA068A1880122FEF76CFD9D
:10199000A068A1880022FEF767FD4CF22C30ADF85C
:1019A00009000DF10901404602226423FFF77CFA89
:1019B000A068A1880122FEF757FDA068A188002237
:1019C000FEF752FD4CF22D40ADF809000DF1090172
:1019D000404602226423FFF767FAA068A18801222B
:1019E000FEF742FDA068A1880022FEF73DFD4CF203
:1019F0002E50ADF809000DF1090140460222642382
:101A0000FFF752FAA068A1880122FEF72DFDA06819
:101A1000A1880022FEF728FD4CF22F60ADF80900E6
:101A20000DF10901404602226423FFF73DFAA06848
:101A3000A1880122FEF718FDA068A1880022009766
:101A40008DF80460FEF710FD30208DF809000DF1CF
:101A50000901404601226423FFF726FA4046294641
:101A600005226423FFF720FAA068A1880122FEF76F
:101A7000FBFCA068A1880022FEF7F6FC3120ADF83F
:101A800009000DF10901404602226423FFF70CFA18
:101A9000A068A1880122FEF7E7FCA068A1880022C7
:101AA000FEF7E2FC3220ADF809000DF109014046D5
:101AB00002226423FFF7F8F9A068A1880122FEF74B
:101AC000D3FCA068A1880022FEF7CEFC3320ADF83D
:101AD00009000DF10901404602226423FFF7E4F9F1
:101AE000A068A1880122FEF7BFFCA068A18800229F
:101AF000FEF7BAFC3420ADF809000DF109014046AB
:101B000002226423FFF7D0F9A068A1880122FEF722
:101B1000ABFCA068A1880022FEF7A6FC3520ADF83A
:101B200009000DF10901404602226423FFF7BCF9C8
:101B3000A068A1880122FEF797FCA068A188002276
:101B4000FEF792FC3620ADF809000DF10901404680
:101B500002226423FFF7A8F9A068A1880122FEF7FA
:101B600083FCA068A1880022FEF77EFC47F250307B
:101B7000ADF809000DF10901404602226423FFF788
:101B800093F9A068A1880122FEF76EFCA068A188E5
:101B90000022FEF769FC3C20ADF809000DF10901B7
:101BA000404602226423FFF77FF9A068A188012242
:101BB000FEF75AFCA068A1880022FEF755FC3D20E4
:101BC000ADF809000DF10901404602226423FFF738
:101BD0006BF9A068A1880122FEF746FC00F0FCFF2B
:101BE000A068A1880022FEF73FFC4FF62470ADF8F4
:101BF00009000DF10901404602226423FFF754F960
:101C0000A068A1880122FEF72FFC032000F024FD2C
:101C1000012000F0AFFC022000F038FC00F062F878
:101C20002022A068A188A2700022FEF71DFC47F2C6
:101C30002700ADF809000DF1090140460222642396
:101C4000FFF732F9A068A1880122FEF70DFCA06819
:101C5000A1880022FEF708FC25208DF809004C2001
:101C60008DF80A000DF10901404602226423FFF7B6
:101C70001BF9A068A1880122FEF7F6FBA068A188E5
:101C80000022FEF7F1FBE1208DF80900FF250DF1A0
:101C900009014046022264238DF80A50FFF704F937
:101CA000A068A1880122FEF7DFFBA068A1880022BE
:101CB000FEF7DAFBE2208DF809000DF1090140463C
:101CC000022264238DF80A50FFF7EEF8A068A1887D
:101CD0000122FEF7C9FB00F0E5FA03B0BDE8F041D0
:101CE00001B0704770B584B040F21806C2F2000629
:101CF000B068B1880022FEF7B7FB40F23C141D200B
:101D0000C2F200040DF107058DF8070020462946B0
:101D100001226423FFF7C8F8691C204601226423CE
:101D2000FEF7C8FFB068B1889DF808500122FEF7A1
:101D30009BFBB068B188002205F0FB05FEF794FB21
:101D40003D208DF80A000DF10A012046022264238D
:101D50008DF80B50FFF7A8F8B068B1880122FEF7A4
:101D600083FBB068B1880022FEF77EFB3C20ADF813
:101D70000D000DF10D01204602226423FFF794F8B7
:101D8000B068B1880122FEF76FFB04B070BD00009F
:101D90002DE9F04782B040F21807C2F20007B86898
:101DA000B9880022FEF760FB40F23C16C2F2000642
:101DB0000DF105044FF01D09304621460122642330
:101DC0008DF80590FFF770F8611C304601226423FE
:101DD000FEF770FFB868B9889DF806400122FEF74B
:101DE00043FBB868B988002244F00604FEF73CFBC8
:101DF0008DF806400DF105044FF03D0A30462146AE
:101E0000022264238DF805A0FFF74EF8B868B98860
:101E10000122FEF729FBB868B9880022FEF724FBEF
:101E200030462146012264238DF80590FFF73CF8E7
:101E3000651C3046294601226423FEF73BFFB86843
:101E4000B9889DF806600122FEF70EFB002E4AD1EC
:101E5000B868B9880022FEF707FB40F23C1847F249
:101E60005030C2F200080DF10506ADF805004046FD
:101E7000314602226423FFF717F8B868B9880122B7
:101E8000FEF7F2FAB868B9880022FEF7EDFA40468C
:101E90003146012264238DF80590FFF705F8711C87
:101EA000404601226423FEF705FFB868B9889DF813
:101EB00006600122FEF7D8FAB868B988002246F019
:101EC0000606FEF7D1FA0DF1050140460222642311
:101ED0008DF805A08DF80660FEF7E6FFB868B988B2
:101EE0000122FEF7C1FAB868B9880022FEF7BCFAF1
:101EF00040F23C161C20C2F200068DF80500304668
:101F0000214601226423FEF7CFFF304629460122F5
:101F10006423FEF7CFFEB868B9889DF80640012219
:101F2000FEF7A2FAB868B988002244F00304FEF76D
:101F30009BFA3C208DF805000DF105013046022288
:101F400064238DF80640FEF7AFFFB868B988012218
:101F5000FEF78AFA02B0BDE8F08700002DE9F047ED
:101F600082B040F21807C2F20007B868B9880022B0
:101F7000FEF77AFA40F23C16C2F200060DF10504B3
:101F80004FF01D0930462146012264238DF805904B
:101F9000FEF78AFF611C304601226423FEF78AFEA9
:101FA000B868B9889DF806400122FEF75DFAB86866
:101FB000B988002244F00404FEF756FA8DF8064072
:101FC0000DF105044FF03D0A3046214602226423FC
:101FD0008DF805A0FEF768FFB868B9880122FEF702
:101FE00043FAB868B9880022FEF73EFA3046214627
:101FF000012264238DF80590FEF756FF651C3046DC
:10200000294601226423FEF755FEB868B9889DF879
:1020100006600122FEF728FA002E4AD1B868B98876
:102020000022FEF721FA40F23C1847F25030C2F28B
:1020300000080DF10506ADF80500404631460222C4
:102040006423FEF731FFB868B9880122FEF70CFA65
:10205000B868B9880022FEF707FA404631460122E7
:1020600064238DF80590FEF71FFF711C4046012286
:102070006423FEF71FFEB868B9889DF80660012248
:10208000FEF7F2F9B868B988002246F00406FEF7B8
:10209000EBF90DF105014046022264238DF805A0FD
:1020A0008DF80660FEF700FFB868B9880122FEF7D8
:1020B000DBF9B868B9880022FEF7D6F940F23C1681
:1020C0001C20C2F200068DF8050030462146012290
:1020D0006423FEF7E9FE3046294601226423FEF719
:1020E000E9FDB868B9889DF806400122FEF7BCF901
:1020F000B868B988002244F03F04FEF7B5F93C20E7
:102100008DF805000DF105013046022264238DF89B
:102110000640FEF7C9FEB868B9880122FEF7A4F9A7
:1021200002B0BDE8F08700002DE9F04383B004461B
:102130000193009230B3062C00F2AD80012C27D918
:1021400043F67E4040F21806C0F60000C2F20006D8
:10215000055DB068B1880022FEF786F945F02000E1
:1021600040F23C15C2F200058DF809000DF109019D
:10217000284601226423FEF797FE6946284601227D
:1021800026E000BF40F21800C2F20000C0E90423BC
:1021900043F67E4040F21806C0F60000C2F2000688
:1021A000055DB068B1880022FEF75EF945F02000B9
:1021B00040F23C15C2F200058DF809000DF109014D
:1021C000284601226423FEF76FFE69462846052251
:1021D0006423FEF769FEB068B1880122FEF744F976
:1021E00040F218072DA0C2F20007055DB868B98853
:1021F000BE780022FEF738F945F0200040F23C1589
:102200008DF80A60C2F200050DF109068DF809008B
:1022100028463146022264234FF00209FEF744FEAD
:10222000B868B98801224FF00108FEF71DF9B868B7
:10223000B9880022FEF718F92846314601226423A6
:102240008DF80990FEF730FE711C284601226423A8
:10225000FEF730FDB868B9889DF80A600122FEF7E4
:1022600003F908FA04F2B868B98846EA02040022C1
:10227000FEF7FAF822208DF809000DF10901284631
:10228000022264238DF80A40FEF70EFEB868B98872
:102290000122FEF7E9F803B0BDE8F0831112131430
:1022A0001516000070B582B040F21806C2F20006A2
:1022B000B068B18800220024FEF7D6F88DF80240FD
:1022C00040F23C14C2F200040DF1020520462946FA
:1022D00001226423FEF7E8FD691C204601226423E5
:1022E000FEF7E8FCB068B1889DF803500122FEF7C4
:1022F000BBF8B068B188002205F0FD05FEF7B4F820
:1023000020208DF805000DF10501204602226423EE
:102310008DF80650FEF7C8FDB068B1880122FEF7BF
:10232000A3F802B070BD00002DE9F04184B040F286
:102330001807C2F20007BD78BA880646B8688D4211
:1023400028BF0D46114600224FF00008FEF78CF81A
:1023500040F23C146120C2F200048DF806000DF139
:102360000601204601226423FEF79EFD20463146E9
:102370002A466423FEF79EFCB868B9880122FEF75E
:1023800073F8B868B9880022FEF76EF817200DF1CF
:1023900007058DF807002046294601226423FEF731
:1023A00083FD691C204601226423FEF783FCB86884
:1023B000B9889DF808500122FEF756F8B868B98828
:1023C000002205F00105FEF74FF84FF6E270ADF878
:1023D0000A000DF10A01204602226423FEF764FD83
:1023E000B868B9880122FEF73FF8B868B9880022BA
:1023F000FEF73AF80DF10D0620463146012264231E
:102400008DF80D80FEF750FD711C204601226423DB
:10241000FEF750FCB868B9880122FEF725F8284677
:1024200004B0BDE8F081000010B582B040F218049D
:10243000C2F2000480B1A068A1880022FEF714F85F
:1024400043F62170ADF8020040F23C10C2F20000E9
:102450000DF102010EE000BFA068A1880022FEF786
:1024600003F82120ADF8050040F23C10C2F2000054
:102470000DF1050102226423FEF716FDA068A18874
:102480000122FDF7F1FF02B010BD0000F0B583B0EE
:1024900040F21807C2F20007BA68B988044610462D
:1024A00000220025FDF7E0FF8DF8065040F23C15B4
:1024B000C2F200050DF106062846314601226423CA
:1024C000FEF7F2FC711C284601226423FEF7F2FBA2
:1024D000B868B9889DF807600122FDF7C5FF06F0CE
:1024E000F3052CB1012C14BF46F00C0545F008058E
:1024F000B868B9880022FDF7B7FF20208DF80900E1
:1025000040F23C10C2F200000DF1090102226423E6
:102510008DF80A50FEF7C8FCB868B9880122FDF7AB
:10252000A3FF03B0F0BD0000B0B582B040F21805C3
:10253000C2F2000504467F28A868A9884FF000026F
:1025400028BF7F24FDF790FF25208DF8050040F27D
:102550003C10C2F200000DF10501022264238DF847
:102560000640FEF7A1FCA868A9880122FDF77CFFC0
:1025700002B0B0BDF0B583B040F21807C2F2000758
:10258000BA68B988044610460022FDF76DFF40F294
:102590003C150620C2F200050DF103068DF803007C
:1025A0002846314601226423FEF77EFC711C284632
:1025B00001226423FEF77EFBB868B9889DF80450B9
:1025C0000122FDF751FF012C05F0D70604D0022CA3
:1025D00008BF46F0200601E046F00806B868B98852
:1025E0000022FDF741FF40F23C142620C2F2000415
:1025F0008DF806000DF106012046022264238DF8B5
:102600000760FEF751FCB868B9880122FDF72CFF7E
:10261000B868B9880022FDF727FF06200DF10905EB
:102620008DF809002046294601226423FEF73CFC70
:10263000691C204601226423FEF73CFBB868B98878
:102640009DF80A400122FDF70FFFA01BB0FA80F0B1
:10265000400903B0F0BD0000F0B583B040F21807A8
:10266000C2F20007BA68B988044610460022FDF796
:10267000FBFE40F23C150620C2F200050DF10606F5
:102680008DF806002846314601226423FEF70CFC33
:10269000711C284601226423FEF70CFBB868B98838
:1026A0009DF807500122FDF7DFFE601E032805F0AC
:1026B000F90411D8DFE800F002060A0E44F0020423
:1026C0000AE000BF44F0040406E000BF45F0060441
:1026D00002E000BF45F00604B868B9880022FDF7A3
:1026E000C3FE26208DF8090040F23C10C2F2000023
:1026F0000DF10901022264238DF80A40FEF7D4FB94
:10270000B868B9880122FDF7AFFE03B0F0BD000044
:1027100040F21801C2F20001202828BF2020887052
:102720007047000070B584B040F21806C2F200068F
:10273000B068B18800220024FDF796FE8DF80140B4
:1027400040F23C14C2F200040DF101052046294676
:1027500001226423FEF7A8FB691C204601226423A2
:10276000FEF7A8FAB068B1889DF802500122FDF783
:102770007BFEB068B188002245F00305FDF774FECA
:1027800020208DF8040001A92046022264238DF840
:102790000550FEF789FBB068B1880122FDF764FEA1
:1027A000D6E9040108431ED0B068B1880022FDF7C5
:1027B0005BFE40F23C142A20C2F200048DF80700B0
:1027C0000DF10701204601226423FEF76DFB06F19F
:1027D0001001204605226423FEF766FBB068B1882D
:1027E0000122FDF741FEB068B1880022FDF73CFEF2
:1027F00040F23C144FF6E170C2F20004ADF80A005A
:102800000DF10A01204602226423FEF74DFBB06859
:10281000B1880122FDF728FEB068B1880022FDF7DB
:1028200023FE4FF6E270ADF80D000DF10D012046CC
:1028300002226423FEF738FBB068B1880122FDF75D
:1028400013FEB068F1880122FDF70EFE04B070BDE2
:10285000704700002DE9F04182B01E4690460D46BB
:102860000446FDF707FE301A00EB0807FDF702FEED
:1028700040F21001C2F200010968C1F3CB31794383
:10288000019121688A682A40AA4227D1064618F198
:1028900001001FD0FDF7EEFD801BB84222D2019847
:1028A00001990028A1F1010101912168896808BFFF
:1028B000074601EA0500A842ECD00FE088682840EE
:1028C000A8420BD188682840A84207D188682840D0
:1028D000A84203D188682840A842EFD0002002B067
:1028E000BDE8F081D4E900014268B1F5827F22F0B1
:1028F000E00242600AD1A168B1F5004F02D0B1F503
:10290000806F03D1016821F040010160A16AB1F537
:10291000005F07D1016821F400510160016841F4B2
:1029200000510160012084F85100002084F850001B
:10293000032002B0BDE8F08170470000FDF7A0BDA4
:1029400070470000FEE70000A8B041F20004C4F2A6
:102950000104FDF7A3FD4FF000094FF4803002277A
:10296000CDE91F09CDE925704FF4E0104FF0010AC1
:1029700027901EA8CDE92399CDE92199CDF878A01B
:10298000CDF888A0FDF728FF0F2019A981E8810262
:102990004FF48060CDE91C0919A80221FDF714FE4F
:1029A00041F21800C4F202000168002241F0100157
:1029B000016001684FF4005501F010011E911E994D
:1029C000016841F020010160016801F020011E91C1
:1029D0001E99016841F008010160016801F00801D9
:1029E0001E911E99016841F00401016000684FF4D6
:1029F000005100F004001E901E982046FDF734FDA3
:102A0000A4F5006840464FF4014100224FF401460E
:102A1000FDF72AFDCDE91E5A1EAD20462946CDE917
:102A20002097FDF713FC40462946CDE91E6ACDE903
:102A30002097FDF70BFC40F2E40AA4F55840C2F2DF
:102A4000000ACAF800004FF48270574647F8040F96
:102A50004FF400700AF11802202182E803020A20D4
:102A6000CAE90A905046CAE90299CAE90499CAF823
:102A70002490FEF78BF840F27005C2F2000504F5D1
:102A800020502E4646F8340F4FF4E1300C21C6E9B1
:102A900001093046C6E90399C6E90519C6F81C9034
:102AA000FEF754FC6846542157F8042B043940F8CB
:102AB000042BF9D1DAF8003040464FF480714FF41E
:102AC0000042FEF737FE306806F10C0E1890706871
:102AD00006F11C0B1790B0689BE8000F1690F06A87
:102AE0003036159047CE9EE88850089003A809918B
:102AF0000A928DE8805080E8000FDDE91710DDE9CB
:102B000015720B96079700F037F8FFF70BFE40F2AF
:102B10000800C2F20000D0E900230120FFF704FB07
:102B20000120FFF781FC3420FFF7FEFC2020FFF797
:102B3000EFFDFFF713FAFFF72BF900BFFEF78CFD4F
:102B40000028FBD028462021FFF7EEFB287818B19B
:102B50000128F3D109E000BF20464FF400510022C4
:102B6000FDF782FC28780128E8D120464FF4005177
:102B70000122FDF779FCE1E740F2180CC2F2000CEB
:102B8000CCF81800CCF81C1000980199CCF828005B
:102B90000298CCF82C100399CCF830000498CCF8AB
:102BA00034100599CCF838000698CCF83C100799F9
:102BB000CCF840000898CCF844100999CCF84800AB
:102BC0000A98CCF84C100B99CCF82020CCF8243083
:102BD000CCE91401704700002DE9F04FAFB043F687
:102BE000FC70C0F60000D0E90037D0E90441109332
:102BF000CDE915370BABD0E90265F2C300F1200730
:102C0000CDE919418ACF0DF1740ED0E906C2CDE9A4
:102C10001765C66ACDE909318EE88A0090F832104E
:102C2000008E15AD0590ADF8840028462096CDE9BC
:102C30000767CDE9112CCDE91BC206918DF88610EE
:102C4000FDF782FA40F21809C2F2000909F1180BE7
:102C500082B2584629460A23FEF726FCD9F8080016
:102C6000B9F8041000220025FDF7FEFB8DF84E5048
:102C700040F23C15C2F200050DF14E0428462146F3
:102C800001226423FEF710F904F1010828464146A9
:102C900001226423FEF70EF8D9F80800B9F80410F1
:102CA0009DF84F500122FDF7DFFB28070ED4DFF817
:102CB000A40A0DF1580C15900FF69820031D0ECBA9
:102CC00000698CE80E00199025E000BF680713D456
:102CD000DFF8640A0DF1580C15900FF65C20071D03
:102CE0008ECF45698CE88E00018B807E1A95ADF8F9
:102CF0006C108DF86E000EE0DFF8200A0DF1580C14
:102D000015900FF61820071D8ECFD0E905508CE8DE
:102D10008E00CDE91A5015AF3846FDF715FA82B28C
:102D2000584639460A23FEF7BFFBD9F80800B9F820
:102D300004100022FDF798FB40F23C150120C2F27E
:102D400000058DF84E002846214601226423FEF737
:102D5000ABF82846414601226423FDF7ABFFD9F8C2
:102D60000800B9F804109DF84FA00122FDF77CFB84
:102D7000CAF38000CAF3C001CAF300148DE813003F
:102D800043F655610AF00102CAF34003CAF3401644
:102D9000C0F600013846039600F00AFD3846FDF7FC
:102DA000D3F982B2584639460A23FEF77DFBD9F89B
:102DB0000800B9F804100022FDF756FB02200DF1BF
:102DC0004E0A8DF84E002846514601226423FEF734
:102DD0006BF82846414601226423FDF76BFFD9F8C2
:102DE0000800B9F804109DF84F400122FDF73CFBA4
:102DF000C4F38000C4F3C001C4F300168DE843009F
:102E000043F6996104F00102C4F34003C4F3401493
:102E1000C0F600013846039400F0CAFC3846FDF7BE
:102E200093F982B2584639460A23FEF73DFBD9F89A
:102E30000800B9F804100022FDF716FB03208DF8F6
:102E40004E002846514601226423FEF72DF82846FD
:102E5000414601226423FDF72DFFD9F80800B9F897
:102E600004109DF84F400122FDF7FEFA04F0030024
:102E7000821C0FF6F401384600F09AFC3846FDF744
:102E800063F982B2584639460A23FEF70DFBD9F89A
:102E90000800B9F804100022FDF7E6FA05208DF8C5
:102EA0004E002846514601226423FDF7FDFF2846C7
:102EB000414601226423FDF7FDFED9F80800B9F868
:102EC00004109DF84F400122FDF7CEFA04F07F0276
:102ED0000FF6B001384600F06BFC3846FDF734F9C8
:102EE00082B2584639460A23FEF7DEFAD9F80800BE
:102EF000B9F804100022FDF7B7FA06208DF84E004D
:102F00002846514601226423FDF7CEFF284641465C
:102F100001226423FDF7CEFED9F80800B9F80410A9
:102F20009DF84F600122FDF79FFA30070CD443F65D
:102F3000E470C0F6000090E88E0005690DF1540CB5
:102F40008CE88E0019950AE0DFF84C080DF1580C5A
:102F500015900FF64400071D8ECF8CE88E00818AF5
:102F6000807D15AD8DF86A002846ADF86810FDF734
:102F7000EBF882B2584629460A23FEF795FAC6F3C3
:102F80004100022808D0012818D038BB43F66870E9
:102F9000C0F6000016E000BF43F65470C0F6000013
:102FA00090E88E000DF1540C8CE88E00018A807C34
:102FB000ADF864108DF866001EE000BF43F6407067
:102FC000C0F60000016842688368C76800690DF1B7
:102FD000540C8CE88E0019900EE000BF43F62C7064
:102FE000C0F6000090E88E00008A0DF1540C8CE8C9
:102FF0000E001897ADF8640015AD2846FDF7A4F84B
:1030000082B2584629460A230A24FEF74DFAD9F817
:103010000800B9F804100022FDF726FA40F23C1A25
:10302000C2F2000A0DF1B9015046012264238DF865
:10303000B940FDF739FF0DF14E07504639460522DC
:103040006423FDF737FED9F80800B9F8041001220F
:10305000FDF70AFA9DF84F009DF850109DF8522098
:103060009DF84E409DF85130CDE9001043F6954152
:10307000C0F600012846029400F09AFB2846FDF7AE
:1030800063F882B2584629460A23FEF70DFAD9F8AA
:103090000800B9F804100022FDF7E6F90B208DF8BE
:1030A000B9000DF1B901504601226423FDF7FCFE81
:1030B0005046394605226423FDF7FCFDD9F8080087
:1030C000B9F804100122FDF7CFF99DF84F009DF8E3
:1030D00050109DF852209DF84E409DF85130CDE99A
:1030E000001043F6C541C0F600012846029400F0E6
:1030F0005FFB2846FDF728F882B2584629460A2386
:10310000FEF7D2F9D9F80800B9F804100022FDF74B
:10311000ABF90C208DF8B9000DF1B9015046012230
:103120006423FDF7C1FE5046394601226423FDF7B2
:10313000C1FDD9F80800B9F804100122FDF794F98F
:103140009DF84E2043F61F51C0F60001284600F0BE
:103150002FFB2846FCF7F8FF82B2584629460A237F
:10316000FEF7A2F9D9F80800B9F804100022FDF71B
:103170007BF90D208DF8B9000DF1B90150460122FF
:103180006423FDF791FE5046394601226423FDF782
:1031900091FDD9F80800B9F804100122FDF764F98F
:1031A0009DF84E2043F64751C0F60001284600F036
:1031B000FFFA2846FCF7C8FF82B2584629460A2380
:1031C000FEF772F9D9F80800B9F804100022FDF7EB
:1031D0004BF90E208DF8B9000DF1B90150460122CE
:1031E0006423FDF761FE5046394601226423FDF752
:1031F00061FDD9F80800B9F804100122FDF734F98F
:103200009DF84E2043F66F51C0F60001284600F0AD
:10321000CFFA2846FCF798FF82B2584629460A237F
:10322000FEF742F9D9F80800B9F804100022FDF7BA
:103230001BF90F208DF8B9000DF1B901504601229C
:103240006423FDF731FE5046394601226423FDF721
:1032500031FDD9F80800B9F804100122FDF704F98E
:103260009DF84E2043F69751C0F60001284600F025
:103270009FFA2846FCF768FF82B2584629460A237F
:10328000FEF712F9D9F80800B9F804100022FDF78A
:10329000EBF810200DF1B9088DF8B9005046414601
:1032A00001226423FDF700FE5046394605226423BF
:1032B000FDF700FDD9F80800B9F804100122FDF768
:1032C000D3F89DF84F009DF850109DF852209DF8BE
:1032D0004E709DF85130CDE9001043F6F541C0F62F
:1032E00000012846029700F063FA2846FCF72CFFFD
:1032F00082B2584629460A23FEF7D6F8D9F80800C4
:10330000B9F804100022FDF7AFF811208DF8B900CC
:103310005046414601226423FDF7C6FD08F101072E
:103320005046394601226423FDF7C4FCD9F8080051
:10333000B9F804109DF8BA400122FDF795F843F65C
:10334000BF5104F03F02C0F60001284600F030FAF9
:103350002846FCF7F9FE82B2584629460A23FEF7B2
:10336000A3F8D9F80800B9F804100022FDF77CF89A
:1033700012208DF8B9005046414601226423FDF722
:1033800093FD5046394601226423FDF793FCD9F89A
:103390000800B9F804109DF8BA400122FDF764F85E
:1033A00043F6D85104F03F02C0F60001284600F071
:1033B000FFF92846FCF7C8FE82B2584629460A2380
:1033C000FEF772F8D9F80800B9F804100022FDF7EA
:1033D0004BF813208DF8B900504641460122642372
:1033E000FDF762FD5046394601226423FDF762FC79
:1033F000D9F80800B9F804109DF8BA400122FDF789
:1034000033F843F6F15104F03F02C0F600012846BC
:1034100000F0CEF92846FCF797FE82B258462946BE
:103420000A23FEF741F8D9F80800B9F80410002281
:10343000FDF71AF814208DF8B900504641460122D4
:103440006423FDF731FD5046394601226423FDF720
:1034500031FCD9F80800B9F804109DF8BA400122EF
:10346000FDF702F843F60A6104F03F02C0F60001DE
:10347000284600F09DF92846FCF766FE82B25846C1
:1034800029460A23FEF710F8D9F80800B9F8041005
:103490000022FCF7E9FF15208DF8B900504641469F
:1034A00001226423FDF700FD5046394601226423C2
:1034B000FDF700FCD9F80800B9F804109DF8BA40EF
:1034C0000122FCF7D1FF43F6236104F03F02C0F66E
:1034D0000001284600F06CF92846FCF735FE82B260
:1034E000584629460A23FDF7DFFFD9F80800B9F846
:1034F00004100022FCF7B8FF16208DF8B9005046E2
:10350000414601226423FDF7CFFC50463946012293
:103510006423FDF7CFFBD9F80800B9F804109DF833
:10352000BA400122FCF7A0FF43F63C6104F03F02E1
:10353000C0F60001284600F03BF92846FCF704FEDF
:1035400082B2584629460A23FDF7AEFFD9F8080093
:10355000B9F804100022FCF787FF1C208DF8B90091
:103560005046414601226423FDF79EFC50463946F1
:1035700001226423FDF79EFBD9F80800B9F8041076
:103580009DF8BA400122FCF76FFFC4F38000C4F33A
:10359000C001C4F300168DE8430043F6E26104F075
:1035A0000102C4F34003C4F34014C0F600012846EE
:1035B000039400F0FDF82846FCF7C6FD82B2584699
:1035C00029460A23FDF770FFD9F80800B9F804105E
:1035D0000022FCF749FF1D208DF8B90050464146F6
:1035E00001226423FDF760FC504639460122642322
:1035F000FDF760FBD9F80800B9F804109DF8BA602F
:103600000122FCF731FF700712D443F6B070C0F608
:10361000000090E88E000DF1540C05698CE88E00D6
:10362000818A807D1995ADF868108DF86A000EE0EA
:1036300043F67C70C0F6000090E88E000569808A31
:103640000DF1540C8CE88E001995ADF8680015AD9D
:103650002846FCF779FD82B2584629460A23FDF731
:1036600023FFB00714D443F6C870C0F6000090E8FA
:103670008E000DF1540CD0E904658CE88E00018BAE
:10368000807ECDE91965ADF86C108DF86E0010E004
:1036900043F69470C0F6000090E88E00D0E904650F
:1036A000008B0DF1540C8CE88E0019961A95ADF82C
:1036B0006C0015AD2846FCF747FD82B258462946F6
:1036C0000A23FDF7F1FE109815900F9816900E98AA
:1036D00017900D9818900C9819900B981A900798BD
:1036E000209008981F9009981E900A981D90119894
:1036F0001C9012981B9006988DF886000598ADF8DE
:1037000084002846FCF720FD82B2584629460A2349
:10371000FDF7CAFE2FB0BDE8F08F00BF4352433A19
:103720000D0A0909456E61626C65642C20322042E5
:1037300079746573200D0A004352433A0D0A090952
:10374000456E61626C65642C20312042797465207D
:103750000D0A00004352433A0D0A09094469736196
:10376000626C6564200D0A0053455455505F415703
:103770003A0D0A09092564206279746573200D0ADF
:103780000000000052465F43483A0D0A09092564CB
:10379000204348200D0A0000446174612052617486
:1037A000653A0D0A0909324D627073200D0A000056
:1037B0000FB4084B10B504A902AA039800F01CF836
:1037C000044602A9002000F048FA204610BC5DF82B
:1037D00014FB00005B3C000802E008C8121F08C18F
:1037E000002AFAD170477047002001E001C1121F82
:1037F000002AFBD1704700002DE9FF4F8DB00F4626
:103800000546002606E025280BD0DDE90F1290477B
:103810006D1C761C28780028F5D111B03046BDE823
:10382000F08F0024A246A1460122EC4900E00443A7
:1038300015F8013F203B02FA03F00842F7D128783F
:103840002A2810D06FF02F022878A0F13001092922
:1038500014D80AEB8A0102EB410144F0020400EBA8
:10386000010A6D1CF0E701CF5FEA000A03D544F4BA
:103870000054CAF1000A44F002046D1C28782E2876
:1038800017D115F8010F44F004042A280ED06FF068
:103890002F022878A0F1300109290AD809EB890103
:1038A00002EB410100EB01096D1CF2E757F8049BA4
:1038B0006D1C28786C280FD006DC4C2817D068289F
:1038C0000DD06A2814D104E0742810D07A280FD1C2
:1038D0000DE044F400140AE044F4801401E044F4E0
:1038E00040146978814202D104F580146D1C6D1C6E
:1038F0002A786E2A1FD00CDC632A31D004DC002A1F
:103900008BD0582A11D1A3E0642A68D0692A0CD13F
:1039100065E0732A2ED004DC6F2A73D0702A04D19C
:103920009BE0752A6FD0782A6ED01046DDE90F1221
:103930009047761C50E1C4F30250022806D00328B9
:1039400009D0042801CF09D0066045E101CFF11765
:10395000C0E9006140E101CF06803DE106703BE136
:1039600017F8040B8DF8000000208DF80100EB46DD
:10397000012003E057F804BB4FF0FF3061074FF020
:10398000000102D40DE008F10101884649450FDA33
:103990008045F8DB1BF808100029F4D108E008F195
:1039A000010188468142FADB1BF808100029F6D194
:1039B000DDE90F23AAEB08008146214600F036F925
:1039C000304400EB080604E0DDE90F121BF8010BA0
:1039D0009047B8F10108F7D221464846F7E00A219E
:1039E000C4F302534FF0000B0891022B04D001CF17
:1039F000C117032B09D00AE0FF1D27F00707F7E8DE
:103A0000020108E032E01FE020E000B2C117042B01
:103A100001D140B2C117031E71F1000307DA4FF064
:103A2000000CD0EB0C006CEB01012D2302E0230510
:103A300004D52B238DF82430012303E0E30701D0C4
:103A40002023F7E7984658E00A2110E010210EE005
:103A500010204FF0000B08900CE010214FF0000BED
:103A600044F004044FF00809089103E008214FF0E6
:103A7000000B0891C4F30253022B04D001CF0021A4
:103A8000032B06D006E0FF1D27F00707F7E8020129
:103A900003E080B2042B00D1C0B24FF0000823072E
:103AA0002BD5702A07D0DDF820C08CF0100C5CEA12
:103AB0000B0C05D00EE040238DF82430012308E0E4
:103AC00050EA010306D030238DF824308DF82520EC
:103AD00002239846DDF820C08CF0080C5CEA0B0C41
:103AE0000BD150EA010301D1630706D530238DF8CD
:103AF00024304FF00108A9F10109582A04D038A256
:103B00000B9208AA0A920BE03AA2F9E75B46089AE0
:103B1000FCF721FB0B9B9B5C0A9A521E0A921370C6
:103B200050EA0102F2D10A98ADEB000000F1200B3F
:103B3000600702D524F4803401E04FF00109D94533
:103B400002DDA9EB0B0000E0002000EB0B0141447B
:103B50000890AAEB010AE00306D4DDE90F23214611
:103B6000504600F063F806444FF0000908E009A948
:103B700011F80900DDE90F12904709F10109761CDF
:103B8000C145F4DBE0030CD5DDE90F2321465046A7
:103B900000F04CF8064404E0DDE90F1230209047B5
:103BA000761C0899481E08900029F5DC08E00A9860
:103BB0000A990078491C0A91DDE90F129047761C9A
:103BC000BBF10001ABF1010BF1DC21465046DDE910
:103BD0000F2300F019F806446D1C1BE609280100AC
:103BE0003031323334353637383961626364656673
:103BF0000000000030313233343536373839414235
:103C000043444546000000002DE9F04104460025EC
:103C10001E461746880404D405E039462020B047E4
:103C20006D1C641EF9D52846BDE8F0812DE9F041F0
:103C3000044600251E469046C80301D5302700E003
:103C40002027880404D505E041463846B0476D1C5E
:103C5000641EF9D52846BDE8F0810A68531C0B6044
:103C60001070704701020000000000000000010217
:103C700003040607080900000000010203040A0B00
:103C80000C0D0E0F1002030405060708090A0B0CA1
:103C90000D0E0F101052585F50697065302041644E
:103CA0006472733A0D0A0909253032582C253032D6
:103CB000582C253032582C253032582C253032588B
:103CC00020200D0A0052585F506970653120416410
:103CD0006472733A0D0A0909253032582C253032A6
:103CE000582C253032582C253032582C253032585B
:103CF00020200D0A0054582041646472733A0D0A62
:103D00000909253032582C253032582C25303258AC
:103D10002C253032582C2530325820200D0A0052E4
:103D2000585F50697065322041646472733A0D0ABD
:103D3000090978782C78782C78782C78782C2530AC
:103D4000325820200D0A0052585F506970653320A8
:103D500041646472733A0D0A090978782C78782CDA
:103D600078782C78782C2530325820200D0A005293
:103D7000585F50697065342041646472733A0D0A6B
:103D8000090978782C78782C78782C78782C25305C
:103D9000325820200D0A0052585F50697065352056
:103DA00041646472733A0D0A090978782C78782C8A
:103DB00078782C78782C2530325820200D0A005243
:103DC000585F50575F50303A0D0A09092564206248
:103DD00079746573200D0A0052585F50575F503157
:103DE0003A0D0A09092564206279746573200D0A69
:103DF0000052585F50575F50323A0D0A0909256446
:103E0000206279746573200D0A0052585F50575F25
:103E100050333A0D0A0909256420627974657320CC
:103E20000D0A0052585F50575F50343A0D0A090985
:103E30002564206279746573200D0A0052585F5022
:103E4000575F50353A0D0A09092564206279746577
:103E500073200D0A00454E41413A0D0A09095030C0
:103E60003A0925640D0A090950313A0925640D0AF9
:103E7000090950323A0925640D0A090950333A09F3
:103E800025640D0A090950343A0925640D0A090907
:103E900050353A0925640D0A00454E5F5258414499
:103EA00044523A0D0A090950303A0925640D0A09AD
:103EB0000950313A0925640D0A090950323A092599
:103EC000640D0A090950333A0925640D0A0909509D
:103ED000343A0925640D0A090950353A0925640D5B
:103EE0000A0044594E50445F706970653A0D0A09E2
:103EF0000950303A0925640D0A090950313A09255B
:103F0000640D0A090950323A0925640D0A0909505D
:103F1000333A0925640D0A090950343A0925640D1C
:103F20000A090950353A0925640D0A0052465F50C6
:103F300057523A0D0A0909306442200D0A00000068
:103F400052465F5057523A0D0A09092D31326442E8
:103F5000200D0A0052465F5057523A0D0A09092DAA
:103F6000366442200D0A000052465F5057523A0D07
:103F70000A09092D31386442200D0A00454E5F447C
:103F8000504C3A0D0A0909456E61626C6564200D5A
:103F90000A000000454E5F41434B5F5041593A0DC6
:103FA0000A0909456E61626C6564200D0A00000013
:103FB000454E5F44504C3A0D0A09094469736162E9
:103FC0006C6564200D0A0000454E5F41434B5F5015
:103FD00041593A0D0A090944697361626C656420AC
:103FE0000D0A00004461746120526174653A0D0A43
:103FF0000909314D627073200D0A00000D0A2A2A4A
:104000002A2A2A2A2A2A2A2A2A2A2A2A2A2A2A2A10
:104010002A2A2A2A2A2A2A2A2A2A2A2A2A2A2A2A00
:104020002A2A2A2A2A2A2A2A2A2A2A2A0D0A000081
:10403000504000080000002018000000D837000899
:10404000684000081800002080050000E8370008DC
:104050000100000010000000AA44332211000000FB
:084060000024F4000000000040
:04000005080000ED02
:00000001FF
